{
  "contractName": "Casino",
  "abi": [
    {
      "inputs": [],
      "payable": false,
      "stateMutability": "nonpayable",
      "type": "constructor"
    },
    {
      "anonymous": false,
      "inputs": [
        {
          "indexed": false,
          "internalType": "address",
          "name": "game",
          "type": "address"
        }
      ],
      "name": "GameCreated",
      "type": "event"
    },
    {
      "anonymous": false,
      "inputs": [
        {
          "indexed": false,
          "internalType": "address",
          "name": "newOwner",
          "type": "address"
        }
      ],
      "name": "OwnerChanged",
      "type": "event"
    },
    {
      "constant": true,
      "inputs": [],
      "name": "count",
      "outputs": [
        {
          "internalType": "uint256",
          "name": "",
          "type": "uint256"
        }
      ],
      "payable": false,
      "stateMutability": "view",
      "type": "function"
    },
    {
      "constant": false,
      "inputs": [
        {
          "internalType": "address",
          "name": "newOwner",
          "type": "address"
        }
      ],
      "name": "delegate",
      "outputs": [],
      "payable": false,
      "stateMutability": "nonpayable",
      "type": "function"
    },
    {
      "constant": true,
      "inputs": [
        {
          "internalType": "uint256",
          "name": "",
          "type": "uint256"
        }
      ],
      "name": "games",
      "outputs": [
        {
          "internalType": "contract CoinFlip",
          "name": "",
          "type": "address"
        }
      ],
      "payable": false,
      "stateMutability": "view",
      "type": "function"
    },
    {
      "constant": true,
      "inputs": [],
      "name": "getOwner",
      "outputs": [
        {
          "internalType": "address",
          "name": "",
          "type": "address"
        }
      ],
      "payable": false,
      "stateMutability": "view",
      "type": "function"
    },
    {
      "constant": false,
      "inputs": [
        {
          "internalType": "bool",
          "name": "heads",
          "type": "bool"
        }
      ],
      "name": "createCoinFlip",
      "outputs": [],
      "payable": true,
      "stateMutability": "payable",
      "type": "function"
    }
  ],
  "bytecode": "0x6080604052600060025534801561001557600080fd5b50336000806101000a81548173ffffffffffffffffffffffffffffffffffffffff021916908373ffffffffffffffffffffffffffffffffffffffff16021790555061537c806100656000396000f3fe608060405260043610620000505760003560e01c806306661abd1462000055578063117a5b9014620000835780635c19a95c1462000102578063893d20e8146200015757806389d975bd14620001b1575b600080fd5b3480156200006257600080fd5b506200006d620001e4565b6040518082815260200191505060405180910390f35b3480156200009057600080fd5b50620000c060048036036020811015620000a957600080fd5b8101908080359060200190929190505050620001ea565b604051808273ffffffffffffffffffffffffffffffffffffffff1673ffffffffffffffffffffffffffffffffffffffff16815260200191505060405180910390f35b3480156200010f57600080fd5b5062000155600480360360208110156200012857600080fd5b81019080803573ffffffffffffffffffffffffffffffffffffffff16906020019092919050505062000227565b005b3480156200016457600080fd5b506200016f620002f8565b604051808273ffffffffffffffffffffffffffffffffffffffff1673ffffffffffffffffffffffffffffffffffffffff16815260200191505060405180910390f35b620001e260048036036020811015620001c957600080fd5b8101908080351515906020019092919050505062000321565b005b60025481565b60018181548110620001f857fe5b906000526020600020016000915054906101000a900473ffffffffffffffffffffffffffffffffffffffff1681565b6000809054906101000a900473ffffffffffffffffffffffffffffffffffffffff1673ffffffffffffffffffffffffffffffffffffffff163373ffffffffffffffffffffffffffffffffffffffff1614620002ea576040517f08c379a000000000000000000000000000000000000000000000000000000000815260040180806020018281038252600e8152602001807f4163636573732064656e6965642e00000000000000000000000000000000000081525060200191505060405180910390fd5b620002f581620004b4565b50565b60008060009054906101000a900473ffffffffffffffffffffffffffffffffffffffff16905090565b6001346200032e620002f8565b836040516200033d906200057b565b808373ffffffffffffffffffffffffffffffffffffffff1673ffffffffffffffffffffffffffffffffffffffff16815260200182151515158152602001925050506040518091039082f0801580156200039a573d6000803e3d6000fd5b50905090806001815401808255809150509060018203906000526020600020016000909192909190916101000a81548173ffffffffffffffffffffffffffffffffffffffff021916908373ffffffffffffffffffffffffffffffffffffffff160217905550506002600081548092919060010191905055507f4f0d1d413a983b9df8ab6ab954635b186a1e9a09ee6dc1b43263ddbf4841226760018060025403815481106200044557fe5b9060005260206000200160009054906101000a900473ffffffffffffffffffffffffffffffffffffffff16604051808273ffffffffffffffffffffffffffffffffffffffff1673ffffffffffffffffffffffffffffffffffffffff16815260200191505060405180910390a150565b806000806101000a81548173ffffffffffffffffffffffffffffffffffffffff021916908373ffffffffffffffffffffffffffffffffffffffff1602179055507fa2ea9883a321a3e97b8266c2b078bfeec6d50c711ed71f874a90d500ae2eaf366000809054906101000a900473ffffffffffffffffffffffffffffffffffffffff16604051808273ffffffffffffffffffffffffffffffffffffffff1673ffffffffffffffffffffffffffffffffffffffff16815260200191505060405180910390a150565b614dbe806200058a8339019056fe608060405260405162004dbe38038062004dbe833981810160405260408110156200002957600080fd5b8101908080519060200190929190805190602001909291905050506000336000806101000a81548173ffffffffffffffffffffffffffffffffffffffff021916908373ffffffffffffffffffffffffffffffffffffffff16021790555062000097816200023960201b60201c565b50620000ad603060f81b6200027c60201b60201c565b620f4240341162000126576040517f08c379a00000000000000000000000000000000000000000000000000000000081526004018080602001828103825260118152602001807f4e6f7420656e6f7567682076616c75652e00000000000000000000000000000081525060200191505060405180910390fd5b81600760000160006101000a81548173ffffffffffffffffffffffffffffffffffffffff021916908373ffffffffffffffffffffffffffffffffffffffff160217905550806007800160006101000a81548160ff02191690831515021790555032600760010160006101000a81548173ffffffffffffffffffffffffffffffffffffffff021916908373ffffffffffffffffffffffffffffffffffffffff16021790555034600760060181905550346007600501600082825401925050819055506200021d600760010160009054906101000a900473ffffffffffffffffffffffffffffffffffffffff16620005e260201b60201c565b600760050154600760060154146200023157fe5b505062000d67565b806001819055507f3c20f49e01bfae9c61bfff26b5d8341dd8463f895dd1db3d003cada4e59506d76001546040518082815260200191505060405180910390a150565b600073ffffffffffffffffffffffffffffffffffffffff16600360009054906101000a900473ffffffffffffffffffffffffffffffffffffffff1673ffffffffffffffffffffffffffffffffffffffff1614806200030c575060006200030a600360009054906101000a900473ffffffffffffffffffffffffffffffffffffffff16620006a960201b60201c565b145b156200032657620003246000620006b460201b60201c565b505b600360009054906101000a900473ffffffffffffffffffffffffffffffffffffffff1673ffffffffffffffffffffffffffffffffffffffff166338cc48316040518163ffffffff1660e01b8152600401602060405180830381600087803b1580156200039157600080fd5b505af1158015620003a6573d6000803e3d6000fd5b505050506040513d6020811015620003bd57600080fd5b810190808051906020019092919050505073ffffffffffffffffffffffffffffffffffffffff16600260009054906101000a900473ffffffffffffffffffffffffffffffffffffffff1673ffffffffffffffffffffffffffffffffffffffff16146200050c57600360009054906101000a900473ffffffffffffffffffffffffffffffffffffffff1673ffffffffffffffffffffffffffffffffffffffff166338cc48316040518163ffffffff1660e01b8152600401602060405180830381600087803b1580156200048e57600080fd5b505af1158015620004a3573d6000803e3d6000fd5b505050506040513d6020811015620004ba57600080fd5b8101908080519060200190929190505050600260006101000a81548173ffffffffffffffffffffffffffffffffffffffff021916908373ffffffffffffffffffffffffffffffffffffffff1602179055505b600260009054906101000a900473ffffffffffffffffffffffffffffffffffffffff1673ffffffffffffffffffffffffffffffffffffffff1663688dcfd7826040518263ffffffff1660e01b815260040180827effffffffffffffffffffffffffffffffffffffffffffffffffffffffffffff19167effffffffffffffffffffffffffffffffffffffffffffffffffffffffffffff19168152602001915050600060405180830381600087803b158015620005c657600080fd5b505af1158015620005db573d6000803e3d6000fd5b5050505050565b806000806101000a81548173ffffffffffffffffffffffffffffffffffffffff021916908373ffffffffffffffffffffffffffffffffffffffff1602179055507fa2ea9883a321a3e97b8266c2b078bfeec6d50c711ed71f874a90d500ae2eaf366000809054906101000a900473ffffffffffffffffffffffffffffffffffffffff16604051808273ffffffffffffffffffffffffffffffffffffffff1673ffffffffffffffffffffffffffffffffffffffff16815260200191505060405180910390a150565b6000813b9050919050565b6000620006c6620006cd60201b60201c565b9050919050565b600080620006f5731d3b2638a7cc9f2cb3d298a3da7a90b67e5506ed620006a960201b60201c565b1115620007a157731d3b2638a7cc9f2cb3d298a3da7a90b67e5506ed600360006101000a81548173ffffffffffffffffffffffffffffffffffffffff021916908373ffffffffffffffffffffffffffffffffffffffff160217905550620007976040518060400160405280600b81526020017f6574685f6d61696e6e657400000000000000000000000000000000000000000081525062000c9c60201b60201c565b6001905062000c99565b6000620007c873c03a2615d5efaf5f49f60b7bb6583eaec212fdf1620006a960201b60201c565b1115620008745773c03a2615d5efaf5f49f60b7bb6583eaec212fdf1600360006101000a81548173ffffffffffffffffffffffffffffffffffffffff021916908373ffffffffffffffffffffffffffffffffffffffff1602179055506200086a6040518060400160405280600c81526020017f6574685f726f707374656e33000000000000000000000000000000000000000081525062000c9c60201b60201c565b6001905062000c99565b60006200089b73b7a07bcf2ba2f2703b24c0691b5278999c59ac7e620006a960201b60201c565b1115620009475773b7a07bcf2ba2f2703b24c0691b5278999c59ac7e600360006101000a81548173ffffffffffffffffffffffffffffffffffffffff021916908373ffffffffffffffffffffffffffffffffffffffff1602179055506200093d6040518060400160405280600981526020017f6574685f6b6f76616e000000000000000000000000000000000000000000000081525062000c9c60201b60201c565b6001905062000c99565b60006200096e73146500cfd35b22e4a392fe0adc06de1a1368ed48620006a960201b60201c565b111562000a1a5773146500cfd35b22e4a392fe0adc06de1a1368ed48600360006101000a81548173ffffffffffffffffffffffffffffffffffffffff021916908373ffffffffffffffffffffffffffffffffffffffff16021790555062000a106040518060400160405280600b81526020017f6574685f72696e6b65627900000000000000000000000000000000000000000081525062000c9c60201b60201c565b6001905062000c99565b600062000a4173a2998efd205fb9d4b4963afb70778d6354ad3a41620006a960201b60201c565b111562000aed5773a2998efd205fb9d4b4963afb70778d6354ad3a41600360006101000a81548173ffffffffffffffffffffffffffffffffffffffff021916908373ffffffffffffffffffffffffffffffffffffffff16021790555062000ae36040518060400160405280600a81526020017f6574685f676f65726c690000000000000000000000000000000000000000000081525062000c9c60201b60201c565b6001905062000c99565b600062000b14736f485c8bf6fc43ea212e93bbf8ce046c7f1cb475620006a960201b60201c565b111562000b7a57736f485c8bf6fc43ea212e93bbf8ce046c7f1cb475600360006101000a81548173ffffffffffffffffffffffffffffffffffffffff021916908373ffffffffffffffffffffffffffffffffffffffff1602179055506001905062000c99565b600062000ba17320e12a1f859b3feae5fb2a0a32c18f5a65555bbf620006a960201b60201c565b111562000c07577320e12a1f859b3feae5fb2a0a32c18f5a65555bbf600360006101000a81548173ffffffffffffffffffffffffffffffffffffffff021916908373ffffffffffffffffffffffffffffffffffffffff1602179055506001905062000c99565b600062000c2e7351efaf4c8b3c9afbd5ab9f4bbc82784ab6ef8faa620006a960201b60201c565b111562000c94577351efaf4c8b3c9afbd5ab9f4bbc82784ab6ef8faa600360006101000a81548173ffffffffffffffffffffffffffffffffffffffff021916908373ffffffffffffffffffffffffffffffffffffffff1602179055506001905062000c99565b600090505b90565b806004908051906020019062000cb492919062000cb8565b5050565b828054600181600116156101000203166002900490600052602060002090601f016020900481019282601f1062000cfb57805160ff191683800117855562000d2c565b8280016001018555821562000d2c579182015b8281111562000d2b57825182559160200191906001019062000d0e565b5b50905062000d3b919062000d3f565b5090565b62000d6491905b8082111562000d6057600081600090555060010162000d46565b5090565b90565b6140478062000d776000396000f3fe6080604052600436106100915760003560e01c8063893d20e811610059578063893d20e814610364578063b688a363146103bb578063e2179b8e146103c5578063e5225381146104d5578063ea8a1af0146104ec57610091565b80631865c57d1461009657806327dc297e146100c157806338bbfa50146101935780634e71d92d146102fc5780635c19a95c14610313575b600080fd5b3480156100a257600080fd5b506100ab610503565b6040518082815260200191505060405180910390f35b3480156100cd57600080fd5b50610191600480360360408110156100e457600080fd5b81019080803590602001909291908035906020019064010000000081111561010b57600080fd5b82018360208201111561011d57600080fd5b8035906020019184600183028401116401000000008311171561013f57600080fd5b91908080601f016020809104026020016040519081016040528093929190818152602001838380828437600081840152601f19601f82011690508083019250505050505050919291929050505061050d565b005b34801561019f57600080fd5b506102fa600480360360608110156101b657600080fd5b8101908080359060200190929190803590602001906401000000008111156101dd57600080fd5b8201836020820111156101ef57600080fd5b8035906020019184600183028401116401000000008311171561021157600080fd5b91908080601f016020809104026020016040519081016040528093929190818152602001838380828437600081840152601f19601f8201169050808301925050505050505091929192908035906020019064010000000081111561027457600080fd5b82018360208201111561028657600080fd5b803590602001918460018302840111640100000000831117156102a857600080fd5b91908080601f016020809104026020016040519081016040528093929190818152602001838380828437600081840152601f19601f820116905080830192505050505050509192919290505050610550565b005b34801561030857600080fd5b50610311610628565b005b34801561031f57600080fd5b506103626004803603602081101561033657600080fd5b81019080803573ffffffffffffffffffffffffffffffffffffffff169060200190929190505050610803565b005b34801561037057600080fd5b506103796108d1565b604051808273ffffffffffffffffffffffffffffffffffffffff1673ffffffffffffffffffffffffffffffffffffffff16815260200191505060405180910390f35b6103c36108fa565b005b3480156103d157600080fd5b506103da610aca565b604051808973ffffffffffffffffffffffffffffffffffffffff1673ffffffffffffffffffffffffffffffffffffffff1681526020018873ffffffffffffffffffffffffffffffffffffffff1673ffffffffffffffffffffffffffffffffffffffff1681526020018773ffffffffffffffffffffffffffffffffffffffff1673ffffffffffffffffffffffffffffffffffffffff1681526020018673ffffffffffffffffffffffffffffffffffffffff1673ffffffffffffffffffffffffffffffffffffffff168152602001858152602001848152602001838152602001821515151581526020019850505050505050505060405180910390f35b3480156104e157600080fd5b506104ea610b8d565b005b3480156104f857600080fd5b50610501610ceb565b005b6000600154905090565b61054c828260006040519080825280601f01601f1916602001820160405280156105465781602001600182028038833980820191505090505b50610550565b5050565b610558610e49565b73ffffffffffffffffffffffffffffffffffffffff163373ffffffffffffffffffffffffffffffffffffffff161461058f57600080fd5b600061059c848484611169565b60ff16146105a657fe5b610623826040516020018082805190602001908083835b602083106105e057805182526020820191506020810190506020830392506105bd565b6001836020036101000a0380198251168184511680821785525050505050509050019150506040516020818303038152906040528051906020012060001c611299565b505050565b6000809054906101000a900473ffffffffffffffffffffffffffffffffffffffff1673ffffffffffffffffffffffffffffffffffffffff163373ffffffffffffffffffffffffffffffffffffffff16146106ea576040517f08c379a000000000000000000000000000000000000000000000000000000000815260040180806020018281038252600e8152602001807f4163636573732064656e6965642e00000000000000000000000000000000000081525060200191505060405180910390fd5b60026001548114610763576040517f08c379a000000000000000000000000000000000000000000000000000000000815260040180806020018281038252601b8152602001807f4163636573732064656e6965642e2057726f6e672073746174652e000000000081525060200191505060405180910390fd5b600061076d6113f4565b905080600760050154036007600501819055506107ae600760000160009054906101000a900473ffffffffffffffffffffffffffffffffffffffff16611419565b6107b860036114e0565b3373ffffffffffffffffffffffffffffffffffffffff166108fc829081150290604051600060405180830381858888f193505050501580156107fe573d6000803e3d6000fd5b505050565b6000809054906101000a900473ffffffffffffffffffffffffffffffffffffffff1673ffffffffffffffffffffffffffffffffffffffff163373ffffffffffffffffffffffffffffffffffffffff16146108c5576040517f08c379a000000000000000000000000000000000000000000000000000000000815260040180806020018281038252600e8152602001807f4163636573732064656e6965642e00000000000000000000000000000000000081525060200191505060405180910390fd5b6108ce81611419565b50565b60008060009054906101000a900473ffffffffffffffffffffffffffffffffffffffff16905090565b60006001548114610973576040517f08c379a000000000000000000000000000000000000000000000000000000000815260040180806020018281038252601b8152602001807f4163636573732064656e6965642e2057726f6e672073746174652e000000000081525060200191505060405180910390fd5b6007600601543410156109ee576040517f08c379a00000000000000000000000000000000000000000000000000000000081526004018080602001828103825260118152602001807f4e6f7420656e6f7567682076616c75652e00000000000000000000000000000081525060200191505060405180910390fd5b32600760020160006101000a81548173ffffffffffffffffffffffffffffffffffffffff021916908373ffffffffffffffffffffffffffffffffffffffff16021790555034600760050160008282540192505081905550610a73600760000160009054906101000a900473ffffffffffffffffffffffffffffffffffffffff16611419565b6007600501546007600601546002021115610a8a57fe5b620f4240600760050160008282540392505081905550610aa86113f4565b600760040181905550610abb60016114e0565b610ac7620f4240611523565b50565b60078060000160009054906101000a900473ffffffffffffffffffffffffffffffffffffffff16908060010160009054906101000a900473ffffffffffffffffffffffffffffffffffffffff16908060020160009054906101000a900473ffffffffffffffffffffffffffffffffffffffff16908060030160009054906101000a900473ffffffffffffffffffffffffffffffffffffffff16908060040154908060050154908060060154908060070160009054906101000a900460ff16905088565b6000809054906101000a900473ffffffffffffffffffffffffffffffffffffffff1673ffffffffffffffffffffffffffffffffffffffff163373ffffffffffffffffffffffffffffffffffffffff1614610c4f576040517f08c379a000000000000000000000000000000000000000000000000000000000815260040180806020018281038252600e8152602001807f4163636573732064656e6965642e00000000000000000000000000000000000081525060200191505060405180910390fd5b60036001548114610cc8576040517f08c379a000000000000000000000000000000000000000000000000000000000815260040180806020018281038252601b8152602001807f4163636573732064656e6965642e2057726f6e672073746174652e000000000081525060200191505060405180910390fd5b610cd260046114e0565b3373ffffffffffffffffffffffffffffffffffffffff16ff5b6000809054906101000a900473ffffffffffffffffffffffffffffffffffffffff1673ffffffffffffffffffffffffffffffffffffffff163373ffffffffffffffffffffffffffffffffffffffff1614610dad576040517f08c379a000000000000000000000000000000000000000000000000000000000815260040180806020018281038252600e8152602001807f4163636573732064656e6965642e00000000000000000000000000000000000081525060200191505060405180910390fd5b60006001548114610e26576040517f08c379a000000000000000000000000000000000000000000000000000000000815260040180806020018281038252601b8152602001807f4163636573732064656e6965642e2057726f6e672073746174652e000000000081525060200191505060405180910390fd5b610e3060056114e0565b3373ffffffffffffffffffffffffffffffffffffffff16ff5b60008073ffffffffffffffffffffffffffffffffffffffff16600360009054906101000a900473ffffffffffffffffffffffffffffffffffffffff1673ffffffffffffffffffffffffffffffffffffffff161480610ed157506000610ecf600360009054906101000a900473ffffffffffffffffffffffffffffffffffffffff16611534565b145b15610ee257610ee0600061153f565b505b600360009054906101000a900473ffffffffffffffffffffffffffffffffffffffff1673ffffffffffffffffffffffffffffffffffffffff166338cc48316040518163ffffffff1660e01b8152600401602060405180830381600087803b158015610f4c57600080fd5b505af1158015610f60573d6000803e3d6000fd5b505050506040513d6020811015610f7657600080fd5b810190808051906020019092919050505073ffffffffffffffffffffffffffffffffffffffff16600260009054906101000a900473ffffffffffffffffffffffffffffffffffffffff1673ffffffffffffffffffffffffffffffffffffffff16146110c157600360009054906101000a900473ffffffffffffffffffffffffffffffffffffffff1673ffffffffffffffffffffffffffffffffffffffff166338cc48316040518163ffffffff1660e01b8152600401602060405180830381600087803b15801561104557600080fd5b505af1158015611059573d6000803e3d6000fd5b505050506040513d602081101561106f57600080fd5b8101908080519060200190929190505050600260006101000a81548173ffffffffffffffffffffffffffffffffffffffff021916908373ffffffffffffffffffffffffffffffffffffffff1602179055505b600260009054906101000a900473ffffffffffffffffffffffffffffffffffffffff1673ffffffffffffffffffffffffffffffffffffffff1663c281d19e6040518163ffffffff1660e01b815260040160206040518083038186803b15801561112957600080fd5b505afa15801561113d573d6000803e3d6000fd5b505050506040513d602081101561115357600080fd5b8101908080519060200190929190505050905090565b60007f4c000000000000000000000000000000000000000000000000000000000000008260008151811061119957fe5b602001015160f81c60f81b7effffffffffffffffffffffffffffffffffffffffffffffffffffffffffffff191614158061122c57507f5000000000000000000000000000000000000000000000000000000000000000826001815181106111fc57fe5b602001015160f81c60f81b7effffffffffffffffffffffffffffffffffffffffffffffffffffffffffffff191614155b806112585750600160ff168260028151811061124457fe5b602001015160f81c60f81b60f81c60ff1614155b156112665760019050611292565b600061127b838686611276611550565b6115f2565b90508061128c576002915050611292565b60009150505b9392505050565b600180548114611311576040517f08c379a000000000000000000000000000000000000000000000000000000000815260040180806020018281038252601b8152602001807f4163636573732064656e6965642e2057726f6e672073746174652e000000000081525060200191505060405180910390fd5b60006002838161131d57fe5b061461134e57600760020160009054906101000a900473ffffffffffffffffffffffffffffffffffffffff16611375565b600760010160009054906101000a900473ffffffffffffffffffffffffffffffffffffffff165b600760030160006101000a81548173ffffffffffffffffffffffffffffffffffffffff021916908373ffffffffffffffffffffffffffffffffffffffff1602179055506113e6600760030160009054906101000a900473ffffffffffffffffffffffffffffffffffffffff16611419565b6113f060026114e0565b5050565b600060646002606403620f424060076006015460020203028161141357fe5b04905090565b806000806101000a81548173ffffffffffffffffffffffffffffffffffffffff021916908373ffffffffffffffffffffffffffffffffffffffff1602179055507fa2ea9883a321a3e97b8266c2b078bfeec6d50c711ed71f874a90d500ae2eaf366000809054906101000a900473ffffffffffffffffffffffffffffffffffffffff16604051808273ffffffffffffffffffffffffffffffffffffffff1673ffffffffffffffffffffffffffffffffffffffff16815260200191505060405180910390a150565b806001819055507f3c20f49e01bfae9c61bfff26b5d8341dd8463f895dd1db3d003cada4e59506d76001546040518082815260200191505060405180910390a150565b6115306000600783611c9d565b5050565b6000813b9050919050565b6000611549612238565b9050919050565b606060048054600181600116156101000203166002900480601f0160208091040260200160405190810160405280929190818152602001828054600181600116156101000203166002900480156115e85780601f106115bd576101008083540402835291602001916115e8565b820191906000526020600020905b8154815290600101906020018083116115cb57829003601f168201915b5050505050905090565b600080602060028760458151811061160657fe5b602001015160f81c60f81b60f81c60ff1601604401019050606060206040519080825280601f01601f1916602001820160405280156116545781602001600182028038833980820191505090505b5090506116668783602084600061278f565b50600284876040516020018083805190602001908083835b602083106116a1578051825260208201915060208101905060208303925061167e565b6001836020036101000a038019825116818451168082178552505050505050905001828152602001925050506040516020818303038152906040526040518082805190602001908083835b6020831061170f57805182526020820191506020810190506020830392506116ec565b6001836020036101000a038019825116818451168082178552505050505050905001915050602060405180830381855afa158015611751573d6000803e3d6000fd5b5050506040513d602081101561176657600080fd5b810190808051906020019092919050505060405160200180828152602001915050604051602081830303815290604052805190602001208180519060200120146117b557600092505050611c95565b606060028860016049860101815181106117cb57fe5b602001015160f81c60f81b60f81c60ff16016040519080825280601f01601f19166020018201604052801561180f5781602001600182028038833980820191505090505b5090506118248860498501835184600061278f565b506118ef6002826040518082805190602001908083835b6020831061185e578051825260208201915060208101905060208303925061183b565b6001836020036101000a038019825116818451168082178552505050505050905001915050602060405180830381855afa1580156118a0573d6000803e3d6000fd5b5050506040513d60208110156118b557600080fd5b8101908080519060200190929190505050878a60086020880101815181106118d957fe5b602001015160f81c60f81b60f81c60ff166127ee565b6118ff5760009350505050611c95565b606060296040519080825280601f01601f1916602001820160405280156119355781602001600182028038833980820191505090505b50905061194a8960208601602984600061278f565b506060604080519080825280601f01601f1916602001820160405280156119805781602001600182028038833980820191505090505b50905060006041845160296020890101010190506119a68b60408303604085600061278f565b5060006002836040518082805190602001908083835b602083106119df57805182526020820191506020810190506020830392506119bc565b6001836020036101000a038019825116818451168082178552505050505050905001915050602060405180830381855afa158015611a21573d6000803e3d6000fd5b5050506040513d6020811015611a3657600080fd5b8101908080519060200190929190505050905083816040516020018083805190602001908083835b60208310611a815780518252602082019150602081019050602083039250611a5e565b6001836020036101000a0380198251168184511680821785525050505050509050018281526020019250505060405160208183030381529060405280519060200120600560008d8152602001908152602001600020541415611af957600560008c815260200190815260200160002060009055611b09565b6000975050505050505050611c95565b606060496040519080825280601f01601f191660200182016040528015611b3f5781602001600182028038833980820191505090505b509050611b518d89604984600061278f565b50611bfa6002826040518082805190602001908083835b60208310611b8b5780518252602082019150602081019050602083039250611b68565b6001836020036101000a038019825116818451168082178552505050505050905001915050602060405180830381855afa158015611bcd573d6000803e3d6000fd5b5050506040513d6020811015611be257600080fd5b8101908080519060200190929190505050878661289e565b611c0f57600098505050505050505050611c95565b6006600083815260200190815260200160002060009054906101000a900460ff16611c6957611c3e8d84612a5c565b6006600084815260200190815260200160002060006101000a81548160ff0219169083151502179055505b6006600083815260200190815260200160002060009054906101000a900460ff16985050505050505050505b949350505050565b60008083118015611caf575060208311155b611cb857600080fd5b600a84029350606060016040519080825280601f01601f191660200182016040528015611cf45781602001600182028038833980820191505090505b5090508360f81b81600081518110611d0857fe5b60200101907effffffffffffffffffffffffffffffffffffffffffffffffffffffffffffff1916908160001a905350606060206040519080825280601f01601f191660200182016040528015611d6d5781602001600182028038833980820191505090505b509050606060206040519080825280601f01601f191660200182016040528015611da65781602001600182028038833980820191505090505b5090506000611db3612e74565b905060208352424118600143034018602084015260208252806020830152606060206040519080825280601f01601f191660200182016040528015611e075781602001600182028038833980820191505090505b509050886020820152606060086040519080825280601f01601f191660200182016040528015611e465781602001600182028038833980820191505090505b509050611e59826018600884600061278f565b50611e62613eec565b60405180608001604052808781526020018881526020018681526020018481525090506000611ec76040518060400160405280600681526020017f72616e646f6d0000000000000000000000000000000000000000000000000000815250838c613194565b9050606060086040519080825280601f01601f191660200182016040528015611eff5781602001600182028038833980820191505090505b50905060208401517f0100000000000000000000000000000000000000000000000000000000000000810460278301537e01000000000000000000000000000000000000000000000000000000000000810460268301537d010000000000000000000000000000000000000000000000000000000000810460258301537c0100000000000000000000000000000000000000000000000000000000810460248301537b01000000000000000000000000000000000000000000000000000000810460238301537a01000000000000000000000000000000000000000000000000000081046022830153790100000000000000000000000000000000000000000000000000810460218301537801000000000000000000000000000000000000000000000000810460208301535061222582828560016004811061203e57fe5b602002015160028760006004811061205257fe5b60200201516040518082805190602001908083835b6020831061208a5780518252602082019150602081019050602083039250612067565b6001836020036101000a038019825116818451168082178552505050505050905001915050602060405180830381855afa1580156120cc573d6000803e3d6000fd5b5050506040513d60208110156120e157600080fd5b8101908080519060200190929190505050876002600481106120ff57fe5b60200201516040516020018085805190602001908083835b6020831061213a5780518252602082019150602081019050602083039250612117565b6001836020036101000a03801982511681845116808217855250505050505090500184805190602001908083835b6020831061218b5780518252602082019150602081019050602083039250612168565b6001836020036101000a03801982511681845116808217855250505050505090500183815260200182805190602001908083835b602083106121e257805182526020820191506020810190506020830392506121bf565b6001836020036101000a03801982511681845116808217855250505050505090500194505050505060405160208183030381529060405280519060200120613503565b8199505050505050505050509392505050565b600080612258731d3b2638a7cc9f2cb3d298a3da7a90b67e5506ed611534565b11156122fa57731d3b2638a7cc9f2cb3d298a3da7a90b67e5506ed600360006101000a81548173ffffffffffffffffffffffffffffffffffffffff021916908373ffffffffffffffffffffffffffffffffffffffff1602179055506122f16040518060400160405280600b81526020017f6574685f6d61696e6e657400000000000000000000000000000000000000000081525061351f565b6001905061278c565b600061231973c03a2615d5efaf5f49f60b7bb6583eaec212fdf1611534565b11156123bb5773c03a2615d5efaf5f49f60b7bb6583eaec212fdf1600360006101000a81548173ffffffffffffffffffffffffffffffffffffffff021916908373ffffffffffffffffffffffffffffffffffffffff1602179055506123b26040518060400160405280600c81526020017f6574685f726f707374656e33000000000000000000000000000000000000000081525061351f565b6001905061278c565b60006123da73b7a07bcf2ba2f2703b24c0691b5278999c59ac7e611534565b111561247c5773b7a07bcf2ba2f2703b24c0691b5278999c59ac7e600360006101000a81548173ffffffffffffffffffffffffffffffffffffffff021916908373ffffffffffffffffffffffffffffffffffffffff1602179055506124736040518060400160405280600981526020017f6574685f6b6f76616e000000000000000000000000000000000000000000000081525061351f565b6001905061278c565b600061249b73146500cfd35b22e4a392fe0adc06de1a1368ed48611534565b111561253d5773146500cfd35b22e4a392fe0adc06de1a1368ed48600360006101000a81548173ffffffffffffffffffffffffffffffffffffffff021916908373ffffffffffffffffffffffffffffffffffffffff1602179055506125346040518060400160405280600b81526020017f6574685f72696e6b65627900000000000000000000000000000000000000000081525061351f565b6001905061278c565b600061255c73a2998efd205fb9d4b4963afb70778d6354ad3a41611534565b11156125fe5773a2998efd205fb9d4b4963afb70778d6354ad3a41600360006101000a81548173ffffffffffffffffffffffffffffffffffffffff021916908373ffffffffffffffffffffffffffffffffffffffff1602179055506125f56040518060400160405280600a81526020017f6574685f676f65726c690000000000000000000000000000000000000000000081525061351f565b6001905061278c565b600061261d736f485c8bf6fc43ea212e93bbf8ce046c7f1cb475611534565b111561268157736f485c8bf6fc43ea212e93bbf8ce046c7f1cb475600360006101000a81548173ffffffffffffffffffffffffffffffffffffffff021916908373ffffffffffffffffffffffffffffffffffffffff1602179055506001905061278c565b60006126a07320e12a1f859b3feae5fb2a0a32c18f5a65555bbf611534565b1115612704577320e12a1f859b3feae5fb2a0a32c18f5a65555bbf600360006101000a81548173ffffffffffffffffffffffffffffffffffffffff021916908373ffffffffffffffffffffffffffffffffffffffff1602179055506001905061278c565b60006127237351efaf4c8b3c9afbd5ab9f4bbc82784ab6ef8faa611534565b1115612787577351efaf4c8b3c9afbd5ab9f4bbc82784ab6ef8faa600360006101000a81548173ffffffffffffffffffffffffffffffffffffffff021916908373ffffffffffffffffffffffffffffffffffffffff1602179055506001905061278c565b600090505b90565b60606000828501905080845110156127a657600080fd5b600086602001905060008460200190505b8688602001018210156127df57818901518082880152506020820191506020810190506127b7565b85935050505095945050505050565b600080600190508284511461280257600080fd5b60008090505b838110156128925784818151811061281c57fe5b602001015160f81c60f81b7effffffffffffffffffffffffffffffffffffffffffffffffffffffffffffff191686826020811061285557fe5b1a60f81b7effffffffffffffffffffffffffffffffffffffffffffffffffffffffffffff19161461288557600091505b8080600101915050612808565b50809150509392505050565b6000806000806000606060206040519080825280601f01601f1916602001820160405280156128dc5781602001600182028038833980820191505090505b50905060006020896003815181106128f057fe5b602001015160f81c60f81b60f81c60ff160360040190506129168982602085600061278f565b9150606060206040519080825280601f01601f19166020018201604052801561294e5781602001600182028038833980820191505090505b50905060228201915061298a8a60208c600186038151811061296c57fe5b602001015160f81c60f81b60f81c60ff16038401602084600061278f565b905060208301519450602081015193506129a78b601b8787613539565b80975081985050508573ffffffffffffffffffffffffffffffffffffffff16898051906020012060001c73ffffffffffffffffffffffffffffffffffffffff1614156129fd576001975050505050505050612a55565b612a0a8b601c8787613539565b80975081985050508573ffffffffffffffffffffffffffffffffffffffff16898051906020012060001c73ffffffffffffffffffffffffffffffffffffffff16149750505050505050505b9392505050565b60008060606002856001860181518110612a7257fe5b602001015160f81c60f81b60f81c60ff16016040519080825280601f01601f191660200182016040528015612ab65781602001600182028038833980820191505090505b509050612ac88585835184600061278f565b506060604080519080825280601f01601f191660200182016040528015612afe5781602001600182028038833980820191505090505b509050612b11866004604084600061278f565b50606060626040519080825280601f01601f191660200182016040528015612b485781602001600182028038833980820191505090505b509050600160f81b81600081518110612b5d57fe5b60200101907effffffffffffffffffffffffffffffffffffffffffffffffffffffffffffff1916908160001a905350612b9e8760418803604184600161278f565b5060606040518060400160405280602081526020017ffd94fa71bc0ba10d39d464d0d8f465efeef0a2764e3887fcc9df41ded20f505c8152509050612be9816000602085604261278f565b50612c926002836040518082805190602001908083835b60208310612c235780518252602082019150602081019050602083039250612c00565b6001836020036101000a038019825116818451168082178552505050505050905001915050602060405180830381855afa158015612c65573d6000803e3d6000fd5b5050506040513d6020811015612c7a57600080fd5b8101908080519060200190929190505050858561289e565b945084612ca757600095505050505050612e6e565b6060604051806060016040528060408152602001613fd3604091399050606060426040519080825280601f01601f191660200182016040528015612cfa5781602001600182028038833980820191505090505b50905060fe60f81b81600081518110612d0f57fe5b60200101907effffffffffffffffffffffffffffffffffffffffffffffffffffffffffffff1916908160001a905350612d4e8a6003604184600161278f565b50606060028b604581518110612d6057fe5b602001015160f81c60f81b60f81c60ff16016040519080825280601f01601f191660200182016040528015612da45781602001600182028038833980820191505090505b509050612db78b6044835184600061278f565b50612e606002836040518082805190602001908083835b60208310612df15780518252602082019150602081019050602083039250612dce565b6001836020036101000a038019825116818451168082178552505050505050905001915050602060405180830381855afa158015612e33573d6000803e3d6000fd5b5050506040513d6020811015612e4857600080fd5b8101908080519060200190929190505050828561289e565b975087985050505050505050505b92915050565b60008073ffffffffffffffffffffffffffffffffffffffff16600360009054906101000a900473ffffffffffffffffffffffffffffffffffffffff1673ffffffffffffffffffffffffffffffffffffffff161480612efc57506000612efa600360009054906101000a900473ffffffffffffffffffffffffffffffffffffffff16611534565b145b15612f0d57612f0b600061153f565b505b600360009054906101000a900473ffffffffffffffffffffffffffffffffffffffff1673ffffffffffffffffffffffffffffffffffffffff166338cc48316040518163ffffffff1660e01b8152600401602060405180830381600087803b158015612f7757600080fd5b505af1158015612f8b573d6000803e3d6000fd5b505050506040513d6020811015612fa157600080fd5b810190808051906020019092919050505073ffffffffffffffffffffffffffffffffffffffff16600260009054906101000a900473ffffffffffffffffffffffffffffffffffffffff1673ffffffffffffffffffffffffffffffffffffffff16146130ec57600360009054906101000a900473ffffffffffffffffffffffffffffffffffffffff1673ffffffffffffffffffffffffffffffffffffffff166338cc48316040518163ffffffff1660e01b8152600401602060405180830381600087803b15801561307057600080fd5b505af1158015613084573d6000803e3d6000fd5b505050506040513d602081101561309a57600080fd5b8101908080519060200190929190505050600260006101000a81548173ffffffffffffffffffffffffffffffffffffffff021916908373ffffffffffffffffffffffffffffffffffffffff1602179055505b600260009054906101000a900473ffffffffffffffffffffffffffffffffffffffff1673ffffffffffffffffffffffffffffffffffffffff1663abaa5f3e6040518163ffffffff1660e01b815260040160206040518083038186803b15801561315457600080fd5b505afa158015613168573d6000803e3d6000fd5b505050506040513d602081101561317e57600080fd5b8101908080519060200190929190505050905090565b60008073ffffffffffffffffffffffffffffffffffffffff16600360009054906101000a900473ffffffffffffffffffffffffffffffffffffffff1673ffffffffffffffffffffffffffffffffffffffff16148061321c5750600061321a600360009054906101000a900473ffffffffffffffffffffffffffffffffffffffff16611534565b145b1561322d5761322b600061153f565b505b600360009054906101000a900473ffffffffffffffffffffffffffffffffffffffff1673ffffffffffffffffffffffffffffffffffffffff166338cc48316040518163ffffffff1660e01b8152600401602060405180830381600087803b15801561329757600080fd5b505af11580156132ab573d6000803e3d6000fd5b505050506040513d60208110156132c157600080fd5b810190808051906020019092919050505073ffffffffffffffffffffffffffffffffffffffff16600260009054906101000a900473ffffffffffffffffffffffffffffffffffffffff1673ffffffffffffffffffffffffffffffffffffffff161461340c57600360009054906101000a900473ffffffffffffffffffffffffffffffffffffffff1673ffffffffffffffffffffffffffffffffffffffff166338cc48316040518163ffffffff1660e01b8152600401602060405180830381600087803b15801561339057600080fd5b505af11580156133a4573d6000803e3d6000fd5b505050506040513d60208110156133ba57600080fd5b8101908080519060200190929190505050600260006101000a81548173ffffffffffffffffffffffffffffffffffffffff021916908373ffffffffffffffffffffffffffffffffffffffff1602179055505b6060600460405190808252806020026020018201604052801561344357816020015b606081526020019060019003908161342e5790505b5090508360006004811061345357fe5b60200201518160008151811061346557fe5b60200260200101819052508360016004811061347d57fe5b60200201518160018151811061348f57fe5b6020026020010181905250836002600481106134a757fe5b6020020151816002815181106134b957fe5b6020026020010181905250836003600481106134d157fe5b6020020151816003815181106134e357fe5b60200260200101819052506134f985828561357d565b9150509392505050565b8060056000848152602001908152602001600020819055505050565b8060049080519060200190613535929190613f13565b5050565b60008060008060405188815287602082015286604082015285606082015260208160808360006001610bb8f192508051915050818193509350505094509492505050565b60008073ffffffffffffffffffffffffffffffffffffffff16600360009054906101000a900473ffffffffffffffffffffffffffffffffffffffff1673ffffffffffffffffffffffffffffffffffffffff16148061360557506000613603600360009054906101000a900473ffffffffffffffffffffffffffffffffffffffff16611534565b145b1561361657613614600061153f565b505b600360009054906101000a900473ffffffffffffffffffffffffffffffffffffffff1673ffffffffffffffffffffffffffffffffffffffff166338cc48316040518163ffffffff1660e01b8152600401602060405180830381600087803b15801561368057600080fd5b505af1158015613694573d6000803e3d6000fd5b505050506040513d60208110156136aa57600080fd5b810190808051906020019092919050505073ffffffffffffffffffffffffffffffffffffffff16600260009054906101000a900473ffffffffffffffffffffffffffffffffffffffff1673ffffffffffffffffffffffffffffffffffffffff16146137f557600360009054906101000a900473ffffffffffffffffffffffffffffffffffffffff1673ffffffffffffffffffffffffffffffffffffffff166338cc48316040518163ffffffff1660e01b8152600401602060405180830381600087803b15801561377957600080fd5b505af115801561378d573d6000803e3d6000fd5b505050506040513d60208110156137a357600080fd5b8101908080519060200190929190505050600260006101000a81548173ffffffffffffffffffffffffffffffffffffffff021916908373ffffffffffffffffffffffffffffffffffffffff1602179055505b6000600260009054906101000a900473ffffffffffffffffffffffffffffffffffffffff1673ffffffffffffffffffffffffffffffffffffffff16632ef3accc86856040518363ffffffff1660e01b81526004018080602001838152602001828103825284818151815260200191508051906020019080838360005b8381101561388c578082015181840152602081019050613871565b50505050905090810190601f1680156138b95780820380516001836020036101000a031916815260200191505b509350505050602060405180830381600087803b1580156138d957600080fd5b505af11580156138ed573d6000803e3d6000fd5b505050506040513d602081101561390357600080fd5b81019080805190602001909291905050509050823a02670de0b6b3a764000001811115613936576000801b915050613adc565b606061394185613ae3565b9050600260009054906101000a900473ffffffffffffffffffffffffffffffffffffffff1673ffffffffffffffffffffffffffffffffffffffff1663c55c1cb68360008985896040518663ffffffff1660e01b8152600401808581526020018060200180602001848152602001838103835286818151815260200191508051906020019080838360005b838110156139e65780820151818401526020810190506139cb565b50505050905090810190601f168015613a135780820380516001836020036101000a031916815260200191505b50838103825285818151815260200191508051906020019080838360005b83811015613a4c578082015181840152602081019050613a31565b50505050905090810190601f168015613a795780820380516001836020036101000a031916815260200191505b5096505050505050506020604051808303818588803b158015613a9b57600080fd5b505af1158015613aaf573d6000803e3d6000fd5b50505050506040513d6020811015613ac657600080fd5b8101908080519060200190929190505050925050505b9392505050565b6060613aed613b63565b613af5613f93565b613b0181610400613b6f565b613b0a81613bb9565b60008090505b8351811015613b4c57613b3f848281518110613b2857fe5b602002602001015183613bc790919063ffffffff16565b8080600101915050613b10565b50613b5681613bec565b8060000151915050919050565b60405180590338823950565b6000819050600060208281613b8057fe5b0614613b995760208181613b9057fe5b06602003810190505b808360200181815250506040518084526000815281810160405250505050565b613bc4816004613bfa565b50565b613bd48260028351613c1b565b613be78183613d5b90919063ffffffff16565b505050565b613bf7816007613bfa565b50565b613c17601f60058360ff16901b1783613e0690919063ffffffff16565b5050565b60178111613c4757613c428160058460ff16901b60ff161784613e0690919063ffffffff16565b613d56565b60ff8111613c8857613c6c601860058460ff16901b1784613e0690919063ffffffff16565b613c8281600185613e469092919063ffffffff16565b50613d55565b61ffff8111613cca57613cae601960058460ff16901b1784613e0690919063ffffffff16565b613cc481600285613e469092919063ffffffff16565b50613d54565b63ffffffff8111613d0e57613cf2601a60058460ff16901b1784613e0690919063ffffffff16565b613d0881600485613e469092919063ffffffff16565b50613d53565b67ffffffffffffffff8111613d5257613d3a601b60058460ff16901b1784613e0690919063ffffffff16565b613d5081600885613e469092919063ffffffff16565b505b5b5b5b5b505050565b613d63613f93565b82602001518360000151518351011115613d9357613d92836002613d8c86602001518651613ead565b02613ec9565b5b60008060008451905085518051602081830101945086518101825260208701935050505b60208110613dda5781518352602083019250602082019150602081039050613db7565b60006001826020036101000a039050801983511681855116818117865250508694505050505092915050565b81602001516001836000015151011115613e2c57613e2b826002846020015102613ec9565b5b815180516020818301018381536001820183525050505050565b613e4e613f93565b836020015184600001515183011115613e7c57613e7b846002613e75876020015186613ead565b02613ec9565b5b60006001836101000a0390508451805184818301018684198251161781528582018352505050849150509392505050565b600081831115613ebf57829050613ec3565b8190505b92915050565b606082600001519050613edc8383613b6f565b613ee68382613d5b565b50505050565b60405180608001604052806004905b6060815260200190600190039081613efb5790505090565b828054600181600116156101000203166002900490600052602060002090601f016020900481019282601f10613f5457805160ff1916838001178555613f82565b82800160010185558215613f82579182015b82811115613f81578251825591602001919060010190613f66565b5b509050613f8f9190613fad565b5090565b604051806040016040528060608152602001600081525090565b613fcf91905b80821115613fcb576000816000905550600101613fb3565b5090565b9056fe7fb956469c5c9b89840d55b43537e66a98dd4811ea0a27224272c2e5622911e8537a2f8e86a46baec82864e98dd01e9ccc2f8bc5dfc9cbe5a91a290498dd96e4a265627a7a7231582089c3fe83f26ca44a6dc6a8b87a643e60146badc1401b85579f7de8c5a0bf242064736f6c634300050c0032a265627a7a72315820034f2a7565ac2587e134a89e1ddccb0d10ef0d777c94e9b80ec64621a2b21afd64736f6c634300050c0032",
  "source": "pragma solidity >=0.4.21 <0.6.0;\n\nimport \"./Ownable.sol\";\nimport \"./CoinFlip.sol\";\n\n\ncontract Casino is Ownable {\n\n    CoinFlip[] public games;\n    uint256 public count = 0;\n\n    event GameCreated(address game);\n\n    constructor() public Ownable() {}\n\n    function createCoinFlip(bool heads) public payable {\n        games.push((new CoinFlip).value(msg.value)(getOwner(), heads));\n        count++;\n        emit GameCreated(address(games[count - 1]));\n    }\n}\n",
  "sourcePath": "/c/Users/mawiz/Workspace/CasinoContract/contracts/Casino.sol",
  "compiler": {
    "name": "solc",
    "version": "0.5.12+commit.7709ece9.Emscripten.clang"
  },
  "schemaVersion": "3.0.20",
  "updatedAt": "2020-04-27T16:43:37.707Z",
  "networkType": "ethereum",
  "devdoc": {
    "methods": {}
  },
  "userdoc": {
    "methods": {}
  }
}