{
  "contractName": "Casino",
  "abi": [
    {
      "inputs": [],
      "payable": false,
      "stateMutability": "nonpayable",
      "type": "constructor"
    },
    {
      "anonymous": false,
      "inputs": [
        {
          "indexed": false,
          "internalType": "address",
          "name": "game",
          "type": "address"
        }
      ],
      "name": "GameCreated",
      "type": "event"
    },
    {
      "anonymous": false,
      "inputs": [
        {
          "indexed": false,
          "internalType": "address",
          "name": "newOwner",
          "type": "address"
        }
      ],
      "name": "OwnerChanged",
      "type": "event"
    },
    {
      "constant": true,
      "inputs": [],
      "name": "count",
      "outputs": [
        {
          "internalType": "uint256",
          "name": "",
          "type": "uint256"
        }
      ],
      "payable": false,
      "stateMutability": "view",
      "type": "function"
    },
    {
      "constant": false,
      "inputs": [
        {
          "internalType": "address",
          "name": "newOwner",
          "type": "address"
        }
      ],
      "name": "delegate",
      "outputs": [],
      "payable": false,
      "stateMutability": "nonpayable",
      "type": "function"
    },
    {
      "constant": true,
      "inputs": [
        {
          "internalType": "uint256",
          "name": "",
          "type": "uint256"
        }
      ],
      "name": "games",
      "outputs": [
        {
          "internalType": "contract CoinFlip",
          "name": "",
          "type": "address"
        }
      ],
      "payable": false,
      "stateMutability": "view",
      "type": "function"
    },
    {
      "constant": true,
      "inputs": [],
      "name": "getOwner",
      "outputs": [
        {
          "internalType": "address",
          "name": "",
          "type": "address"
        }
      ],
      "payable": false,
      "stateMutability": "view",
      "type": "function"
    },
    {
      "constant": false,
      "inputs": [
        {
          "internalType": "bool",
          "name": "heads",
          "type": "bool"
        }
      ],
      "name": "createCoinFlip",
      "outputs": [],
      "payable": true,
      "stateMutability": "payable",
      "type": "function"
    }
  ],
  "bytecode": "0x6080604052600060025534801561001557600080fd5b50336000806101000a81548173ffffffffffffffffffffffffffffffffffffffff021916908373ffffffffffffffffffffffffffffffffffffffff1602179055506153e2806100656000396000f3fe608060405260043610620000505760003560e01c806306661abd1462000055578063117a5b9014620000835780635c19a95c1462000102578063893d20e8146200015757806389d975bd14620001b1575b600080fd5b3480156200006257600080fd5b506200006d620001e4565b6040518082815260200191505060405180910390f35b3480156200009057600080fd5b50620000c060048036036020811015620000a957600080fd5b8101908080359060200190929190505050620001ea565b604051808273ffffffffffffffffffffffffffffffffffffffff1673ffffffffffffffffffffffffffffffffffffffff16815260200191505060405180910390f35b3480156200010f57600080fd5b5062000155600480360360208110156200012857600080fd5b81019080803573ffffffffffffffffffffffffffffffffffffffff16906020019092919050505062000227565b005b3480156200016457600080fd5b506200016f620002f8565b604051808273ffffffffffffffffffffffffffffffffffffffff1673ffffffffffffffffffffffffffffffffffffffff16815260200191505060405180910390f35b620001e260048036036020811015620001c957600080fd5b8101908080351515906020019092919050505062000321565b005b60025481565b60018181548110620001f857fe5b906000526020600020016000915054906101000a900473ffffffffffffffffffffffffffffffffffffffff1681565b6000809054906101000a900473ffffffffffffffffffffffffffffffffffffffff1673ffffffffffffffffffffffffffffffffffffffff163373ffffffffffffffffffffffffffffffffffffffff1614620002ea576040517f08c379a000000000000000000000000000000000000000000000000000000000815260040180806020018281038252600e8152602001807f4163636573732064656e6965642e00000000000000000000000000000000000081525060200191505060405180910390fd5b620002f581620004b4565b50565b60008060009054906101000a900473ffffffffffffffffffffffffffffffffffffffff16905090565b6001346200032e620002f8565b836040516200033d906200057b565b808373ffffffffffffffffffffffffffffffffffffffff1673ffffffffffffffffffffffffffffffffffffffff16815260200182151515158152602001925050506040518091039082f0801580156200039a573d6000803e3d6000fd5b50905090806001815401808255809150509060018203906000526020600020016000909192909190916101000a81548173ffffffffffffffffffffffffffffffffffffffff021916908373ffffffffffffffffffffffffffffffffffffffff160217905550506002600081548092919060010191905055507f4f0d1d413a983b9df8ab6ab954635b186a1e9a09ee6dc1b43263ddbf4841226760018060025403815481106200044557fe5b9060005260206000200160009054906101000a900473ffffffffffffffffffffffffffffffffffffffff16604051808273ffffffffffffffffffffffffffffffffffffffff1673ffffffffffffffffffffffffffffffffffffffff16815260200191505060405180910390a150565b806000806101000a81548173ffffffffffffffffffffffffffffffffffffffff021916908373ffffffffffffffffffffffffffffffffffffffff1602179055507fa2ea9883a321a3e97b8266c2b078bfeec6d50c711ed71f874a90d500ae2eaf366000809054906101000a900473ffffffffffffffffffffffffffffffffffffffff16604051808273ffffffffffffffffffffffffffffffffffffffff1673ffffffffffffffffffffffffffffffffffffffff16815260200191505060405180910390a150565b614e24806200058a8339019056fe608060405260405162004e2438038062004e24833981810160405260408110156200002957600080fd5b8101908080519060200190929190805190602001909291905050506000336000806101000a81548173ffffffffffffffffffffffffffffffffffffffff021916908373ffffffffffffffffffffffffffffffffffffffff16021790555062000097816200023760201b60201c565b50620000ad603060f81b6200027a60201b60201c565b6001341162000124576040517f08c379a00000000000000000000000000000000000000000000000000000000081526004018080602001828103825260118152602001807f4e6f7420656e6f7567682076616c75652e00000000000000000000000000000081525060200191505060405180910390fd5b81600760000160006101000a81548173ffffffffffffffffffffffffffffffffffffffff021916908373ffffffffffffffffffffffffffffffffffffffff160217905550806007800160006101000a81548160ff02191690831515021790555032600760010160006101000a81548173ffffffffffffffffffffffffffffffffffffffff021916908373ffffffffffffffffffffffffffffffffffffffff16021790555034600760060181905550346007600501600082825401925050819055506200021b600760010160009054906101000a900473ffffffffffffffffffffffffffffffffffffffff16620005e060201b60201c565b600760050154600760060154146200022f57fe5b505062000d65565b806001819055507f3c20f49e01bfae9c61bfff26b5d8341dd8463f895dd1db3d003cada4e59506d76001546040518082815260200191505060405180910390a150565b600073ffffffffffffffffffffffffffffffffffffffff16600360009054906101000a900473ffffffffffffffffffffffffffffffffffffffff1673ffffffffffffffffffffffffffffffffffffffff1614806200030a5750600062000308600360009054906101000a900473ffffffffffffffffffffffffffffffffffffffff16620006a760201b60201c565b145b156200032457620003226000620006b260201b60201c565b505b600360009054906101000a900473ffffffffffffffffffffffffffffffffffffffff1673ffffffffffffffffffffffffffffffffffffffff166338cc48316040518163ffffffff1660e01b8152600401602060405180830381600087803b1580156200038f57600080fd5b505af1158015620003a4573d6000803e3d6000fd5b505050506040513d6020811015620003bb57600080fd5b810190808051906020019092919050505073ffffffffffffffffffffffffffffffffffffffff16600260009054906101000a900473ffffffffffffffffffffffffffffffffffffffff1673ffffffffffffffffffffffffffffffffffffffff16146200050a57600360009054906101000a900473ffffffffffffffffffffffffffffffffffffffff1673ffffffffffffffffffffffffffffffffffffffff166338cc48316040518163ffffffff1660e01b8152600401602060405180830381600087803b1580156200048c57600080fd5b505af1158015620004a1573d6000803e3d6000fd5b505050506040513d6020811015620004b857600080fd5b8101908080519060200190929190505050600260006101000a81548173ffffffffffffffffffffffffffffffffffffffff021916908373ffffffffffffffffffffffffffffffffffffffff1602179055505b600260009054906101000a900473ffffffffffffffffffffffffffffffffffffffff1673ffffffffffffffffffffffffffffffffffffffff1663688dcfd7826040518263ffffffff1660e01b815260040180827effffffffffffffffffffffffffffffffffffffffffffffffffffffffffffff19167effffffffffffffffffffffffffffffffffffffffffffffffffffffffffffff19168152602001915050600060405180830381600087803b158015620005c457600080fd5b505af1158015620005d9573d6000803e3d6000fd5b5050505050565b806000806101000a81548173ffffffffffffffffffffffffffffffffffffffff021916908373ffffffffffffffffffffffffffffffffffffffff1602179055507fa2ea9883a321a3e97b8266c2b078bfeec6d50c711ed71f874a90d500ae2eaf366000809054906101000a900473ffffffffffffffffffffffffffffffffffffffff16604051808273ffffffffffffffffffffffffffffffffffffffff1673ffffffffffffffffffffffffffffffffffffffff16815260200191505060405180910390a150565b6000813b9050919050565b6000620006c4620006cb60201b60201c565b9050919050565b600080620006f3731d3b2638a7cc9f2cb3d298a3da7a90b67e5506ed620006a760201b60201c565b11156200079f57731d3b2638a7cc9f2cb3d298a3da7a90b67e5506ed600360006101000a81548173ffffffffffffffffffffffffffffffffffffffff021916908373ffffffffffffffffffffffffffffffffffffffff160217905550620007956040518060400160405280600b81526020017f6574685f6d61696e6e657400000000000000000000000000000000000000000081525062000c9a60201b60201c565b6001905062000c97565b6000620007c673c03a2615d5efaf5f49f60b7bb6583eaec212fdf1620006a760201b60201c565b1115620008725773c03a2615d5efaf5f49f60b7bb6583eaec212fdf1600360006101000a81548173ffffffffffffffffffffffffffffffffffffffff021916908373ffffffffffffffffffffffffffffffffffffffff160217905550620008686040518060400160405280600c81526020017f6574685f726f707374656e33000000000000000000000000000000000000000081525062000c9a60201b60201c565b6001905062000c97565b60006200089973b7a07bcf2ba2f2703b24c0691b5278999c59ac7e620006a760201b60201c565b1115620009455773b7a07bcf2ba2f2703b24c0691b5278999c59ac7e600360006101000a81548173ffffffffffffffffffffffffffffffffffffffff021916908373ffffffffffffffffffffffffffffffffffffffff1602179055506200093b6040518060400160405280600981526020017f6574685f6b6f76616e000000000000000000000000000000000000000000000081525062000c9a60201b60201c565b6001905062000c97565b60006200096c73146500cfd35b22e4a392fe0adc06de1a1368ed48620006a760201b60201c565b111562000a185773146500cfd35b22e4a392fe0adc06de1a1368ed48600360006101000a81548173ffffffffffffffffffffffffffffffffffffffff021916908373ffffffffffffffffffffffffffffffffffffffff16021790555062000a0e6040518060400160405280600b81526020017f6574685f72696e6b65627900000000000000000000000000000000000000000081525062000c9a60201b60201c565b6001905062000c97565b600062000a3f73a2998efd205fb9d4b4963afb70778d6354ad3a41620006a760201b60201c565b111562000aeb5773a2998efd205fb9d4b4963afb70778d6354ad3a41600360006101000a81548173ffffffffffffffffffffffffffffffffffffffff021916908373ffffffffffffffffffffffffffffffffffffffff16021790555062000ae16040518060400160405280600a81526020017f6574685f676f65726c690000000000000000000000000000000000000000000081525062000c9a60201b60201c565b6001905062000c97565b600062000b12736f485c8bf6fc43ea212e93bbf8ce046c7f1cb475620006a760201b60201c565b111562000b7857736f485c8bf6fc43ea212e93bbf8ce046c7f1cb475600360006101000a81548173ffffffffffffffffffffffffffffffffffffffff021916908373ffffffffffffffffffffffffffffffffffffffff1602179055506001905062000c97565b600062000b9f7320e12a1f859b3feae5fb2a0a32c18f5a65555bbf620006a760201b60201c565b111562000c05577320e12a1f859b3feae5fb2a0a32c18f5a65555bbf600360006101000a81548173ffffffffffffffffffffffffffffffffffffffff021916908373ffffffffffffffffffffffffffffffffffffffff1602179055506001905062000c97565b600062000c2c7351efaf4c8b3c9afbd5ab9f4bbc82784ab6ef8faa620006a760201b60201c565b111562000c92577351efaf4c8b3c9afbd5ab9f4bbc82784ab6ef8faa600360006101000a81548173ffffffffffffffffffffffffffffffffffffffff021916908373ffffffffffffffffffffffffffffffffffffffff1602179055506001905062000c97565b600090505b90565b806004908051906020019062000cb292919062000cb6565b5050565b828054600181600116156101000203166002900490600052602060002090601f016020900481019282601f1062000cf957805160ff191683800117855562000d2a565b8280016001018555821562000d2a579182015b8281111562000d2957825182559160200191906001019062000d0c565b5b50905062000d39919062000d3d565b5090565b62000d6291905b8082111562000d5e57600081600090555060010162000d44565b5090565b90565b6140af8062000d756000396000f3fe6080604052600436106100915760003560e01c8063893d20e811610059578063893d20e814610357578063b688a363146103ae578063e2179b8e146103b8578063e5225381146104c8578063ea8a1af0146104d257610091565b80631865c57d1461009657806327dc297e146100c157806338bbfa50146101935780634e71d92d146102fc5780635c19a95c14610306575b600080fd5b3480156100a257600080fd5b506100ab6104dc565b6040518082815260200191505060405180910390f35b3480156100cd57600080fd5b50610191600480360360408110156100e457600080fd5b81019080803590602001909291908035906020019064010000000081111561010b57600080fd5b82018360208201111561011d57600080fd5b8035906020019184600183028401116401000000008311171561013f57600080fd5b91908080601f016020809104026020016040519081016040528093929190818152602001838380828437600081840152601f19601f8201169050808301925050505050505091929192905050506104e6565b005b34801561019f57600080fd5b506102fa600480360360608110156101b657600080fd5b8101908080359060200190929190803590602001906401000000008111156101dd57600080fd5b8201836020820111156101ef57600080fd5b8035906020019184600183028401116401000000008311171561021157600080fd5b91908080601f016020809104026020016040519081016040528093929190818152602001838380828437600081840152601f19601f8201169050808301925050505050505091929192908035906020019064010000000081111561027457600080fd5b82018360208201111561028657600080fd5b803590602001918460018302840111640100000000831117156102a857600080fd5b91908080601f016020809104026020016040519081016040528093929190818152602001838380828437600081840152601f19601f820116905080830192505050505050509192919290505050610529565b005b610304610601565b005b34801561031257600080fd5b506103556004803603602081101561032957600080fd5b81019080803573ffffffffffffffffffffffffffffffffffffffff1690602001909291905050506107dc565b005b34801561036357600080fd5b5061036c6108aa565b604051808273ffffffffffffffffffffffffffffffffffffffff1673ffffffffffffffffffffffffffffffffffffffff16815260200191505060405180910390f35b6103b66108d3565b005b3480156103c457600080fd5b506103cd610a33565b604051808973ffffffffffffffffffffffffffffffffffffffff1673ffffffffffffffffffffffffffffffffffffffff1681526020018873ffffffffffffffffffffffffffffffffffffffff1673ffffffffffffffffffffffffffffffffffffffff1681526020018773ffffffffffffffffffffffffffffffffffffffff1673ffffffffffffffffffffffffffffffffffffffff1681526020018673ffffffffffffffffffffffffffffffffffffffff1673ffffffffffffffffffffffffffffffffffffffff168152602001858152602001848152602001838152602001821515151581526020019850505050505050505060405180910390f35b6104d0610af6565b005b6104da610cb0565b005b6000600154905090565b610525828260006040519080825280601f01601f19166020018201604052801561051f5781602001600182028038833980820191505090505b50610529565b5050565b610531610e98565b73ffffffffffffffffffffffffffffffffffffffff163373ffffffffffffffffffffffffffffffffffffffff161461056857600080fd5b60006105758484846111b8565b60ff161461057f57fe5b6105fc826040516020018082805190602001908083835b602083106105b95780518252602082019150602081019050602083039250610596565b6001836020036101000a0380198251168184511680821785525050505050509050019150506040516020818303038152906040528051906020012060001c6112e8565b505050565b6000809054906101000a900473ffffffffffffffffffffffffffffffffffffffff1673ffffffffffffffffffffffffffffffffffffffff163373ffffffffffffffffffffffffffffffffffffffff16146106c3576040517f08c379a000000000000000000000000000000000000000000000000000000000815260040180806020018281038252600e8152602001807f4163636573732064656e6965642e00000000000000000000000000000000000081525060200191505060405180910390fd5b6002600154811461073c576040517f08c379a000000000000000000000000000000000000000000000000000000000815260040180806020018281038252601b8152602001807f4163636573732064656e6965642e2057726f6e672073746174652e000000000081525060200191505060405180910390fd5b6000610746611454565b90503373ffffffffffffffffffffffffffffffffffffffff166108fc829081150290604051600060405180830381858888f1935050505015801561078e573d6000803e3d6000fd5b5080600760050154036007600501819055506107ce600760000160009054906101000a900473ffffffffffffffffffffffffffffffffffffffff16611474565b6107d8600361153b565b5050565b6000809054906101000a900473ffffffffffffffffffffffffffffffffffffffff1673ffffffffffffffffffffffffffffffffffffffff163373ffffffffffffffffffffffffffffffffffffffff161461089e576040517f08c379a000000000000000000000000000000000000000000000000000000000815260040180806020018281038252600e8152602001807f4163636573732064656e6965642e00000000000000000000000000000000000081525060200191505060405180910390fd5b6108a781611474565b50565b60008060009054906101000a900473ffffffffffffffffffffffffffffffffffffffff16905090565b6000600154811461094c576040517f08c379a000000000000000000000000000000000000000000000000000000000815260040180806020018281038252601b8152602001807f4163636573732064656e6965642e2057726f6e672073746174652e000000000081525060200191505060405180910390fd5b6007600601543410156109c7576040517f08c379a00000000000000000000000000000000000000000000000000000000081526004018080602001828103825260118152602001807f4e6f7420656e6f7567682076616c75652e00000000000000000000000000000081525060200191505060405180910390fd5b32600760020160006101000a81548173ffffffffffffffffffffffffffffffffffffffff021916908373ffffffffffffffffffffffffffffffffffffffff16021790555034600760050160008282540192505081905550610a28600161153b565b610a3061157e565b50565b60078060000160009054906101000a900473ffffffffffffffffffffffffffffffffffffffff16908060010160009054906101000a900473ffffffffffffffffffffffffffffffffffffffff16908060020160009054906101000a900473ffffffffffffffffffffffffffffffffffffffff16908060030160009054906101000a900473ffffffffffffffffffffffffffffffffffffffff16908060040154908060050154908060060154908060070160009054906101000a900460ff16905088565b6000809054906101000a900473ffffffffffffffffffffffffffffffffffffffff1673ffffffffffffffffffffffffffffffffffffffff163373ffffffffffffffffffffffffffffffffffffffff1614610bb8576040517f08c379a000000000000000000000000000000000000000000000000000000000815260040180806020018281038252600e8152602001807f4163636573732064656e6965642e00000000000000000000000000000000000081525060200191505060405180910390fd5b60036001548114610c31576040517f08c379a000000000000000000000000000000000000000000000000000000000815260040180806020018281038252601b8152602001807f4163636573732064656e6965642e2057726f6e672073746174652e000000000081525060200191505060405180910390fd5b600060076005015490503373ffffffffffffffffffffffffffffffffffffffff166108fc829081150290604051600060405180830381858888f19350505050158015610c81573d6000803e3d6000fd5b508060076005015403600760050181905550600060076005015414610ca257fe5b610cac600461153b565b5050565b6000809054906101000a900473ffffffffffffffffffffffffffffffffffffffff1673ffffffffffffffffffffffffffffffffffffffff163373ffffffffffffffffffffffffffffffffffffffff1614610d72576040517f08c379a000000000000000000000000000000000000000000000000000000000815260040180806020018281038252600e8152602001807f4163636573732064656e6965642e00000000000000000000000000000000000081525060200191505060405180910390fd5b60006001548114610deb576040517f08c379a000000000000000000000000000000000000000000000000000000000815260040180806020018281038252601b8152602001807f4163636573732064656e6965642e2057726f6e672073746174652e000000000081525060200191505060405180910390fd5b600060076005015490503373ffffffffffffffffffffffffffffffffffffffff166108fc829081150290604051600060405180830381858888f19350505050158015610e3b573d6000803e3d6000fd5b508060076005015403600760050181905550610e7b600760000160009054906101000a900473ffffffffffffffffffffffffffffffffffffffff16611474565b600060076005015414610e8a57fe5b610e94600561153b565b5050565b60008073ffffffffffffffffffffffffffffffffffffffff16600360009054906101000a900473ffffffffffffffffffffffffffffffffffffffff1673ffffffffffffffffffffffffffffffffffffffff161480610f2057506000610f1e600360009054906101000a900473ffffffffffffffffffffffffffffffffffffffff1661159c565b145b15610f3157610f2f60006115a7565b505b600360009054906101000a900473ffffffffffffffffffffffffffffffffffffffff1673ffffffffffffffffffffffffffffffffffffffff166338cc48316040518163ffffffff1660e01b8152600401602060405180830381600087803b158015610f9b57600080fd5b505af1158015610faf573d6000803e3d6000fd5b505050506040513d6020811015610fc557600080fd5b810190808051906020019092919050505073ffffffffffffffffffffffffffffffffffffffff16600260009054906101000a900473ffffffffffffffffffffffffffffffffffffffff1673ffffffffffffffffffffffffffffffffffffffff161461111057600360009054906101000a900473ffffffffffffffffffffffffffffffffffffffff1673ffffffffffffffffffffffffffffffffffffffff166338cc48316040518163ffffffff1660e01b8152600401602060405180830381600087803b15801561109457600080fd5b505af11580156110a8573d6000803e3d6000fd5b505050506040513d60208110156110be57600080fd5b8101908080519060200190929190505050600260006101000a81548173ffffffffffffffffffffffffffffffffffffffff021916908373ffffffffffffffffffffffffffffffffffffffff1602179055505b600260009054906101000a900473ffffffffffffffffffffffffffffffffffffffff1673ffffffffffffffffffffffffffffffffffffffff1663c281d19e6040518163ffffffff1660e01b815260040160206040518083038186803b15801561117857600080fd5b505afa15801561118c573d6000803e3d6000fd5b505050506040513d60208110156111a257600080fd5b8101908080519060200190929190505050905090565b60007f4c00000000000000000000000000000000000000000000000000000000000000826000815181106111e857fe5b602001015160f81c60f81b7effffffffffffffffffffffffffffffffffffffffffffffffffffffffffffff191614158061127b57507f50000000000000000000000000000000000000000000000000000000000000008260018151811061124b57fe5b602001015160f81c60f81b7effffffffffffffffffffffffffffffffffffffffffffffffffffffffffffff191614155b806112a75750600160ff168260028151811061129357fe5b602001015160f81c60f81b60f81c60ff1614155b156112b557600190506112e1565b60006112ca8386866112c56115b8565b61165a565b9050806112db5760029150506112e1565b60009150505b9392505050565b600180548114611360576040517f08c379a000000000000000000000000000000000000000000000000000000000815260040180806020018281038252601b8152602001807f4163636573732064656e6965642e2057726f6e672073746174652e000000000081525060200191505060405180910390fd5b60006002838161136c57fe5b061461139d57600760020160009054906101000a900473ffffffffffffffffffffffffffffffffffffffff166113c4565b600760010160009054906101000a900473ffffffffffffffffffffffffffffffffffffffff165b600760030160006101000a81548173ffffffffffffffffffffffffffffffffffffffff021916908373ffffffffffffffffffffffffffffffffffffffff16021790555061140f611454565b600760040181905550611446600760030160009054906101000a900473ffffffffffffffffffffffffffffffffffffffff16611474565b611450600261153b565b5050565b600060646002606403600760060154600202028161146e57fe5b04905090565b806000806101000a81548173ffffffffffffffffffffffffffffffffffffffff021916908373ffffffffffffffffffffffffffffffffffffffff1602179055507fa2ea9883a321a3e97b8266c2b078bfeec6d50c711ed71f874a90d500ae2eaf366000809054906101000a900473ffffffffffffffffffffffffffffffffffffffff16604051808273ffffffffffffffffffffffffffffffffffffffff1673ffffffffffffffffffffffffffffffffffffffff16815260200191505060405180910390a150565b806001819055507f3c20f49e01bfae9c61bfff26b5d8341dd8463f895dd1db3d003cada4e59506d76001546040518082815260200191505060405180910390a150565b6000809050600062030d40905061159782600783611d05565b505050565b6000813b9050919050565b60006115b16122a0565b9050919050565b606060048054600181600116156101000203166002900480601f0160208091040260200160405190810160405280929190818152602001828054600181600116156101000203166002900480156116505780601f1061162557610100808354040283529160200191611650565b820191906000526020600020905b81548152906001019060200180831161163357829003601f168201915b5050505050905090565b600080602060028760458151811061166e57fe5b602001015160f81c60f81b60f81c60ff1601604401019050606060206040519080825280601f01601f1916602001820160405280156116bc5781602001600182028038833980820191505090505b5090506116ce878360208460006127f7565b50600284876040516020018083805190602001908083835b6020831061170957805182526020820191506020810190506020830392506116e6565b6001836020036101000a038019825116818451168082178552505050505050905001828152602001925050506040516020818303038152906040526040518082805190602001908083835b602083106117775780518252602082019150602081019050602083039250611754565b6001836020036101000a038019825116818451168082178552505050505050905001915050602060405180830381855afa1580156117b9573d6000803e3d6000fd5b5050506040513d60208110156117ce57600080fd5b8101908080519060200190929190505050604051602001808281526020019150506040516020818303038152906040528051906020012081805190602001201461181d57600092505050611cfd565b6060600288600160498601018151811061183357fe5b602001015160f81c60f81b60f81c60ff16016040519080825280601f01601f1916602001820160405280156118775781602001600182028038833980820191505090505b50905061188c886049850183518460006127f7565b506119576002826040518082805190602001908083835b602083106118c657805182526020820191506020810190506020830392506118a3565b6001836020036101000a038019825116818451168082178552505050505050905001915050602060405180830381855afa158015611908573d6000803e3d6000fd5b5050506040513d602081101561191d57600080fd5b8101908080519060200190929190505050878a600860208801018151811061194157fe5b602001015160f81c60f81b60f81c60ff16612856565b6119675760009350505050611cfd565b606060296040519080825280601f01601f19166020018201604052801561199d5781602001600182028038833980820191505090505b5090506119b2896020860160298460006127f7565b506060604080519080825280601f01601f1916602001820160405280156119e85781602001600182028038833980820191505090505b5090506000604184516029602089010101019050611a0e8b6040830360408560006127f7565b5060006002836040518082805190602001908083835b60208310611a475780518252602082019150602081019050602083039250611a24565b6001836020036101000a038019825116818451168082178552505050505050905001915050602060405180830381855afa158015611a89573d6000803e3d6000fd5b5050506040513d6020811015611a9e57600080fd5b8101908080519060200190929190505050905083816040516020018083805190602001908083835b60208310611ae95780518252602082019150602081019050602083039250611ac6565b6001836020036101000a0380198251168184511680821785525050505050509050018281526020019250505060405160208183030381529060405280519060200120600560008d8152602001908152602001600020541415611b6157600560008c815260200190815260200160002060009055611b71565b6000975050505050505050611cfd565b606060496040519080825280601f01601f191660200182016040528015611ba75781602001600182028038833980820191505090505b509050611bb98d8960498460006127f7565b50611c626002826040518082805190602001908083835b60208310611bf35780518252602082019150602081019050602083039250611bd0565b6001836020036101000a038019825116818451168082178552505050505050905001915050602060405180830381855afa158015611c35573d6000803e3d6000fd5b5050506040513d6020811015611c4a57600080fd5b81019080805190602001909291905050508786612906565b611c7757600098505050505050505050611cfd565b6006600083815260200190815260200160002060009054906101000a900460ff16611cd157611ca68d84612ac4565b6006600084815260200190815260200160002060006101000a81548160ff0219169083151502179055505b6006600083815260200190815260200160002060009054906101000a900460ff16985050505050505050505b949350505050565b60008083118015611d17575060208311155b611d2057600080fd5b600a84029350606060016040519080825280601f01601f191660200182016040528015611d5c5781602001600182028038833980820191505090505b5090508360f81b81600081518110611d7057fe5b60200101907effffffffffffffffffffffffffffffffffffffffffffffffffffffffffffff1916908160001a905350606060206040519080825280601f01601f191660200182016040528015611dd55781602001600182028038833980820191505090505b509050606060206040519080825280601f01601f191660200182016040528015611e0e5781602001600182028038833980820191505090505b5090506000611e1b612edc565b905060208352424118600143034018602084015260208252806020830152606060206040519080825280601f01601f191660200182016040528015611e6f5781602001600182028038833980820191505090505b509050886020820152606060086040519080825280601f01601f191660200182016040528015611eae5781602001600182028038833980820191505090505b509050611ec182601860088460006127f7565b50611eca613f54565b60405180608001604052808781526020018881526020018681526020018481525090506000611f2f6040518060400160405280600681526020017f72616e646f6d0000000000000000000000000000000000000000000000000000815250838c6131fc565b9050606060086040519080825280601f01601f191660200182016040528015611f675781602001600182028038833980820191505090505b50905060208401517f0100000000000000000000000000000000000000000000000000000000000000810460278301537e01000000000000000000000000000000000000000000000000000000000000810460268301537d010000000000000000000000000000000000000000000000000000000000810460258301537c0100000000000000000000000000000000000000000000000000000000810460248301537b01000000000000000000000000000000000000000000000000000000810460238301537a01000000000000000000000000000000000000000000000000000081046022830153790100000000000000000000000000000000000000000000000000810460218301537801000000000000000000000000000000000000000000000000810460208301535061228d8282856001600481106120a657fe5b60200201516002876000600481106120ba57fe5b60200201516040518082805190602001908083835b602083106120f257805182526020820191506020810190506020830392506120cf565b6001836020036101000a038019825116818451168082178552505050505050905001915050602060405180830381855afa158015612134573d6000803e3d6000fd5b5050506040513d602081101561214957600080fd5b81019080805190602001909291905050508760026004811061216757fe5b60200201516040516020018085805190602001908083835b602083106121a2578051825260208201915060208101905060208303925061217f565b6001836020036101000a03801982511681845116808217855250505050505090500184805190602001908083835b602083106121f357805182526020820191506020810190506020830392506121d0565b6001836020036101000a03801982511681845116808217855250505050505090500183815260200182805190602001908083835b6020831061224a5780518252602082019150602081019050602083039250612227565b6001836020036101000a0380198251168184511680821785525050505050509050019450505050506040516020818303038152906040528051906020012061356b565b8199505050505050505050509392505050565b6000806122c0731d3b2638a7cc9f2cb3d298a3da7a90b67e5506ed61159c565b111561236257731d3b2638a7cc9f2cb3d298a3da7a90b67e5506ed600360006101000a81548173ffffffffffffffffffffffffffffffffffffffff021916908373ffffffffffffffffffffffffffffffffffffffff1602179055506123596040518060400160405280600b81526020017f6574685f6d61696e6e6574000000000000000000000000000000000000000000815250613587565b600190506127f4565b600061238173c03a2615d5efaf5f49f60b7bb6583eaec212fdf161159c565b11156124235773c03a2615d5efaf5f49f60b7bb6583eaec212fdf1600360006101000a81548173ffffffffffffffffffffffffffffffffffffffff021916908373ffffffffffffffffffffffffffffffffffffffff16021790555061241a6040518060400160405280600c81526020017f6574685f726f707374656e330000000000000000000000000000000000000000815250613587565b600190506127f4565b600061244273b7a07bcf2ba2f2703b24c0691b5278999c59ac7e61159c565b11156124e45773b7a07bcf2ba2f2703b24c0691b5278999c59ac7e600360006101000a81548173ffffffffffffffffffffffffffffffffffffffff021916908373ffffffffffffffffffffffffffffffffffffffff1602179055506124db6040518060400160405280600981526020017f6574685f6b6f76616e0000000000000000000000000000000000000000000000815250613587565b600190506127f4565b600061250373146500cfd35b22e4a392fe0adc06de1a1368ed4861159c565b11156125a55773146500cfd35b22e4a392fe0adc06de1a1368ed48600360006101000a81548173ffffffffffffffffffffffffffffffffffffffff021916908373ffffffffffffffffffffffffffffffffffffffff16021790555061259c6040518060400160405280600b81526020017f6574685f72696e6b656279000000000000000000000000000000000000000000815250613587565b600190506127f4565b60006125c473a2998efd205fb9d4b4963afb70778d6354ad3a4161159c565b11156126665773a2998efd205fb9d4b4963afb70778d6354ad3a41600360006101000a81548173ffffffffffffffffffffffffffffffffffffffff021916908373ffffffffffffffffffffffffffffffffffffffff16021790555061265d6040518060400160405280600a81526020017f6574685f676f65726c6900000000000000000000000000000000000000000000815250613587565b600190506127f4565b6000612685736f485c8bf6fc43ea212e93bbf8ce046c7f1cb47561159c565b11156126e957736f485c8bf6fc43ea212e93bbf8ce046c7f1cb475600360006101000a81548173ffffffffffffffffffffffffffffffffffffffff021916908373ffffffffffffffffffffffffffffffffffffffff160217905550600190506127f4565b60006127087320e12a1f859b3feae5fb2a0a32c18f5a65555bbf61159c565b111561276c577320e12a1f859b3feae5fb2a0a32c18f5a65555bbf600360006101000a81548173ffffffffffffffffffffffffffffffffffffffff021916908373ffffffffffffffffffffffffffffffffffffffff160217905550600190506127f4565b600061278b7351efaf4c8b3c9afbd5ab9f4bbc82784ab6ef8faa61159c565b11156127ef577351efaf4c8b3c9afbd5ab9f4bbc82784ab6ef8faa600360006101000a81548173ffffffffffffffffffffffffffffffffffffffff021916908373ffffffffffffffffffffffffffffffffffffffff160217905550600190506127f4565b600090505b90565b606060008285019050808451101561280e57600080fd5b600086602001905060008460200190505b868860200101821015612847578189015180828801525060208201915060208101905061281f565b85935050505095945050505050565b600080600190508284511461286a57600080fd5b60008090505b838110156128fa5784818151811061288457fe5b602001015160f81c60f81b7effffffffffffffffffffffffffffffffffffffffffffffffffffffffffffff19168682602081106128bd57fe5b1a60f81b7effffffffffffffffffffffffffffffffffffffffffffffffffffffffffffff1916146128ed57600091505b8080600101915050612870565b50809150509392505050565b6000806000806000606060206040519080825280601f01601f1916602001820160405280156129445781602001600182028038833980820191505090505b509050600060208960038151811061295857fe5b602001015160f81c60f81b60f81c60ff1603600401905061297e898260208560006127f7565b9150606060206040519080825280601f01601f1916602001820160405280156129b65781602001600182028038833980820191505090505b5090506022820191506129f28a60208c60018603815181106129d457fe5b602001015160f81c60f81b60f81c60ff1603840160208460006127f7565b90506020830151945060208101519350612a0f8b601b87876135a1565b80975081985050508573ffffffffffffffffffffffffffffffffffffffff16898051906020012060001c73ffffffffffffffffffffffffffffffffffffffff161415612a65576001975050505050505050612abd565b612a728b601c87876135a1565b80975081985050508573ffffffffffffffffffffffffffffffffffffffff16898051906020012060001c73ffffffffffffffffffffffffffffffffffffffff16149750505050505050505b9392505050565b60008060606002856001860181518110612ada57fe5b602001015160f81c60f81b60f81c60ff16016040519080825280601f01601f191660200182016040528015612b1e5781602001600182028038833980820191505090505b509050612b30858583518460006127f7565b506060604080519080825280601f01601f191660200182016040528015612b665781602001600182028038833980820191505090505b509050612b7986600460408460006127f7565b50606060626040519080825280601f01601f191660200182016040528015612bb05781602001600182028038833980820191505090505b509050600160f81b81600081518110612bc557fe5b60200101907effffffffffffffffffffffffffffffffffffffffffffffffffffffffffffff1916908160001a905350612c06876041880360418460016127f7565b5060606040518060400160405280602081526020017ffd94fa71bc0ba10d39d464d0d8f465efeef0a2764e3887fcc9df41ded20f505c8152509050612c5181600060208560426127f7565b50612cfa6002836040518082805190602001908083835b60208310612c8b5780518252602082019150602081019050602083039250612c68565b6001836020036101000a038019825116818451168082178552505050505050905001915050602060405180830381855afa158015612ccd573d6000803e3d6000fd5b5050506040513d6020811015612ce257600080fd5b81019080805190602001909291905050508585612906565b945084612d0f57600095505050505050612ed6565b606060405180606001604052806040815260200161403b604091399050606060426040519080825280601f01601f191660200182016040528015612d625781602001600182028038833980820191505090505b50905060fe60f81b81600081518110612d7757fe5b60200101907effffffffffffffffffffffffffffffffffffffffffffffffffffffffffffff1916908160001a905350612db68a600360418460016127f7565b50606060028b604581518110612dc857fe5b602001015160f81c60f81b60f81c60ff16016040519080825280601f01601f191660200182016040528015612e0c5781602001600182028038833980820191505090505b509050612e1f8b604483518460006127f7565b50612ec86002836040518082805190602001908083835b60208310612e595780518252602082019150602081019050602083039250612e36565b6001836020036101000a038019825116818451168082178552505050505050905001915050602060405180830381855afa158015612e9b573d6000803e3d6000fd5b5050506040513d6020811015612eb057600080fd5b81019080805190602001909291905050508285612906565b975087985050505050505050505b92915050565b60008073ffffffffffffffffffffffffffffffffffffffff16600360009054906101000a900473ffffffffffffffffffffffffffffffffffffffff1673ffffffffffffffffffffffffffffffffffffffff161480612f6457506000612f62600360009054906101000a900473ffffffffffffffffffffffffffffffffffffffff1661159c565b145b15612f7557612f7360006115a7565b505b600360009054906101000a900473ffffffffffffffffffffffffffffffffffffffff1673ffffffffffffffffffffffffffffffffffffffff166338cc48316040518163ffffffff1660e01b8152600401602060405180830381600087803b158015612fdf57600080fd5b505af1158015612ff3573d6000803e3d6000fd5b505050506040513d602081101561300957600080fd5b810190808051906020019092919050505073ffffffffffffffffffffffffffffffffffffffff16600260009054906101000a900473ffffffffffffffffffffffffffffffffffffffff1673ffffffffffffffffffffffffffffffffffffffff161461315457600360009054906101000a900473ffffffffffffffffffffffffffffffffffffffff1673ffffffffffffffffffffffffffffffffffffffff166338cc48316040518163ffffffff1660e01b8152600401602060405180830381600087803b1580156130d857600080fd5b505af11580156130ec573d6000803e3d6000fd5b505050506040513d602081101561310257600080fd5b8101908080519060200190929190505050600260006101000a81548173ffffffffffffffffffffffffffffffffffffffff021916908373ffffffffffffffffffffffffffffffffffffffff1602179055505b600260009054906101000a900473ffffffffffffffffffffffffffffffffffffffff1673ffffffffffffffffffffffffffffffffffffffff1663abaa5f3e6040518163ffffffff1660e01b815260040160206040518083038186803b1580156131bc57600080fd5b505afa1580156131d0573d6000803e3d6000fd5b505050506040513d60208110156131e657600080fd5b8101908080519060200190929190505050905090565b60008073ffffffffffffffffffffffffffffffffffffffff16600360009054906101000a900473ffffffffffffffffffffffffffffffffffffffff1673ffffffffffffffffffffffffffffffffffffffff16148061328457506000613282600360009054906101000a900473ffffffffffffffffffffffffffffffffffffffff1661159c565b145b156132955761329360006115a7565b505b600360009054906101000a900473ffffffffffffffffffffffffffffffffffffffff1673ffffffffffffffffffffffffffffffffffffffff166338cc48316040518163ffffffff1660e01b8152600401602060405180830381600087803b1580156132ff57600080fd5b505af1158015613313573d6000803e3d6000fd5b505050506040513d602081101561332957600080fd5b810190808051906020019092919050505073ffffffffffffffffffffffffffffffffffffffff16600260009054906101000a900473ffffffffffffffffffffffffffffffffffffffff1673ffffffffffffffffffffffffffffffffffffffff161461347457600360009054906101000a900473ffffffffffffffffffffffffffffffffffffffff1673ffffffffffffffffffffffffffffffffffffffff166338cc48316040518163ffffffff1660e01b8152600401602060405180830381600087803b1580156133f857600080fd5b505af115801561340c573d6000803e3d6000fd5b505050506040513d602081101561342257600080fd5b8101908080519060200190929190505050600260006101000a81548173ffffffffffffffffffffffffffffffffffffffff021916908373ffffffffffffffffffffffffffffffffffffffff1602179055505b606060046040519080825280602002602001820160405280156134ab57816020015b60608152602001906001900390816134965790505b509050836000600481106134bb57fe5b6020020151816000815181106134cd57fe5b6020026020010181905250836001600481106134e557fe5b6020020151816001815181106134f757fe5b60200260200101819052508360026004811061350f57fe5b60200201518160028151811061352157fe5b60200260200101819052508360036004811061353957fe5b60200201518160038151811061354b57fe5b60200260200101819052506135618582856135e5565b9150509392505050565b8060056000848152602001908152602001600020819055505050565b806004908051906020019061359d929190613f7b565b5050565b60008060008060405188815287602082015286604082015285606082015260208160808360006001610bb8f192508051915050818193509350505094509492505050565b60008073ffffffffffffffffffffffffffffffffffffffff16600360009054906101000a900473ffffffffffffffffffffffffffffffffffffffff1673ffffffffffffffffffffffffffffffffffffffff16148061366d5750600061366b600360009054906101000a900473ffffffffffffffffffffffffffffffffffffffff1661159c565b145b1561367e5761367c60006115a7565b505b600360009054906101000a900473ffffffffffffffffffffffffffffffffffffffff1673ffffffffffffffffffffffffffffffffffffffff166338cc48316040518163ffffffff1660e01b8152600401602060405180830381600087803b1580156136e857600080fd5b505af11580156136fc573d6000803e3d6000fd5b505050506040513d602081101561371257600080fd5b810190808051906020019092919050505073ffffffffffffffffffffffffffffffffffffffff16600260009054906101000a900473ffffffffffffffffffffffffffffffffffffffff1673ffffffffffffffffffffffffffffffffffffffff161461385d57600360009054906101000a900473ffffffffffffffffffffffffffffffffffffffff1673ffffffffffffffffffffffffffffffffffffffff166338cc48316040518163ffffffff1660e01b8152600401602060405180830381600087803b1580156137e157600080fd5b505af11580156137f5573d6000803e3d6000fd5b505050506040513d602081101561380b57600080fd5b8101908080519060200190929190505050600260006101000a81548173ffffffffffffffffffffffffffffffffffffffff021916908373ffffffffffffffffffffffffffffffffffffffff1602179055505b6000600260009054906101000a900473ffffffffffffffffffffffffffffffffffffffff1673ffffffffffffffffffffffffffffffffffffffff16632ef3accc86856040518363ffffffff1660e01b81526004018080602001838152602001828103825284818151815260200191508051906020019080838360005b838110156138f45780820151818401526020810190506138d9565b50505050905090810190601f1680156139215780820380516001836020036101000a031916815260200191505b509350505050602060405180830381600087803b15801561394157600080fd5b505af1158015613955573d6000803e3d6000fd5b505050506040513d602081101561396b57600080fd5b81019080805190602001909291905050509050823a02670de0b6b3a76400000181111561399e576000801b915050613b44565b60606139a985613b4b565b9050600260009054906101000a900473ffffffffffffffffffffffffffffffffffffffff1673ffffffffffffffffffffffffffffffffffffffff1663c55c1cb68360008985896040518663ffffffff1660e01b8152600401808581526020018060200180602001848152602001838103835286818151815260200191508051906020019080838360005b83811015613a4e578082015181840152602081019050613a33565b50505050905090810190601f168015613a7b5780820380516001836020036101000a031916815260200191505b50838103825285818151815260200191508051906020019080838360005b83811015613ab4578082015181840152602081019050613a99565b50505050905090810190601f168015613ae15780820380516001836020036101000a031916815260200191505b5096505050505050506020604051808303818588803b158015613b0357600080fd5b505af1158015613b17573d6000803e3d6000fd5b50505050506040513d6020811015613b2e57600080fd5b8101908080519060200190929190505050925050505b9392505050565b6060613b55613bcb565b613b5d613ffb565b613b6981610400613bd7565b613b7281613c21565b60008090505b8351811015613bb457613ba7848281518110613b9057fe5b602002602001015183613c2f90919063ffffffff16565b8080600101915050613b78565b50613bbe81613c54565b8060000151915050919050565b60405180590338823950565b6000819050600060208281613be857fe5b0614613c015760208181613bf857fe5b06602003810190505b808360200181815250506040518084526000815281810160405250505050565b613c2c816004613c62565b50565b613c3c8260028351613c83565b613c4f8183613dc390919063ffffffff16565b505050565b613c5f816007613c62565b50565b613c7f601f60058360ff16901b1783613e6e90919063ffffffff16565b5050565b60178111613caf57613caa8160058460ff16901b60ff161784613e6e90919063ffffffff16565b613dbe565b60ff8111613cf057613cd4601860058460ff16901b1784613e6e90919063ffffffff16565b613cea81600185613eae9092919063ffffffff16565b50613dbd565b61ffff8111613d3257613d16601960058460ff16901b1784613e6e90919063ffffffff16565b613d2c81600285613eae9092919063ffffffff16565b50613dbc565b63ffffffff8111613d7657613d5a601a60058460ff16901b1784613e6e90919063ffffffff16565b613d7081600485613eae9092919063ffffffff16565b50613dbb565b67ffffffffffffffff8111613dba57613da2601b60058460ff16901b1784613e6e90919063ffffffff16565b613db881600885613eae9092919063ffffffff16565b505b5b5b5b5b505050565b613dcb613ffb565b82602001518360000151518351011115613dfb57613dfa836002613df486602001518651613f15565b02613f31565b5b60008060008451905085518051602081830101945086518101825260208701935050505b60208110613e425781518352602083019250602082019150602081039050613e1f565b60006001826020036101000a039050801983511681855116818117865250508694505050505092915050565b81602001516001836000015151011115613e9457613e93826002846020015102613f31565b5b815180516020818301018381536001820183525050505050565b613eb6613ffb565b836020015184600001515183011115613ee457613ee3846002613edd876020015186613f15565b02613f31565b5b60006001836101000a0390508451805184818301018684198251161781528582018352505050849150509392505050565b600081831115613f2757829050613f2b565b8190505b92915050565b606082600001519050613f448383613bd7565b613f4e8382613dc3565b50505050565b60405180608001604052806004905b6060815260200190600190039081613f635790505090565b828054600181600116156101000203166002900490600052602060002090601f016020900481019282601f10613fbc57805160ff1916838001178555613fea565b82800160010185558215613fea579182015b82811115613fe9578251825591602001919060010190613fce565b5b509050613ff79190614015565b5090565b604051806040016040528060608152602001600081525090565b61403791905b8082111561403357600081600090555060010161401b565b5090565b9056fe7fb956469c5c9b89840d55b43537e66a98dd4811ea0a27224272c2e5622911e8537a2f8e86a46baec82864e98dd01e9ccc2f8bc5dfc9cbe5a91a290498dd96e4a265627a7a72315820074a0ac5347395dad74fecc4940f12aca53bb665c45d3cb69e11a9251798b58d64736f6c634300050c0032a265627a7a723158200b8824c1561be942f9377dde8c989521f97665ce98f99e6a3bb120c3802143bd64736f6c634300050c0032",
  "source": "pragma solidity >=0.4.21 <0.6.0;\n\nimport \"./Ownable.sol\";\nimport \"./CoinFlip.sol\";\n\n\ncontract Casino is Ownable {\n\n    CoinFlip[] public games;\n    uint256 public count = 0;\n\n    event GameCreated(address game);\n\n    constructor() public Ownable() {}\n\n    function createCoinFlip(bool heads) public payable {\n        games.push((new CoinFlip).value(msg.value)(getOwner(), heads));\n        count++;\n        emit GameCreated(address(games[count - 1]));\n    }\n}\n",
  "sourcePath": "/c/Users/mawiz/Workspace/CasinoContract/contracts/Casino.sol",
  "compiler": {
    "name": "solc",
    "version": "0.5.12+commit.7709ece9.Emscripten.clang"
  },
  "schemaVersion": "3.0.20",
  "updatedAt": "2020-04-25T16:29:04.253Z",
  "networkType": "ethereum",
  "devdoc": {
    "methods": {}
  },
  "userdoc": {
    "methods": {}
  }
}