{
  "contractName": "CoinFlip",
  "abi": [
    {
      "inputs": [
        {
          "internalType": "address",
          "name": "casinoOwner",
          "type": "address"
        },
        {
          "internalType": "bool",
          "name": "heads",
          "type": "bool"
        }
      ],
      "payable": true,
      "stateMutability": "payable",
      "type": "constructor"
    },
    {
      "anonymous": false,
      "inputs": [
        {
          "indexed": false,
          "internalType": "address",
          "name": "newOwner",
          "type": "address"
        }
      ],
      "name": "OwnerChanged",
      "type": "event"
    },
    {
      "anonymous": false,
      "inputs": [
        {
          "indexed": false,
          "internalType": "uint256",
          "name": "newState",
          "type": "uint256"
        }
      ],
      "name": "StateChanged",
      "type": "event"
    },
    {
      "constant": false,
      "inputs": [
        {
          "internalType": "bytes32",
          "name": "_myid",
          "type": "bytes32"
        },
        {
          "internalType": "string",
          "name": "_result",
          "type": "string"
        }
      ],
      "name": "__callback",
      "outputs": [],
      "payable": false,
      "stateMutability": "nonpayable",
      "type": "function"
    },
    {
      "constant": false,
      "inputs": [
        {
          "internalType": "bytes32",
          "name": "_queryId",
          "type": "bytes32"
        },
        {
          "internalType": "string",
          "name": "_result",
          "type": "string"
        },
        {
          "internalType": "bytes",
          "name": "_proof",
          "type": "bytes"
        }
      ],
      "name": "__callback",
      "outputs": [],
      "payable": false,
      "stateMutability": "nonpayable",
      "type": "function"
    },
    {
      "constant": false,
      "inputs": [
        {
          "internalType": "address",
          "name": "newOwner",
          "type": "address"
        }
      ],
      "name": "delegate",
      "outputs": [],
      "payable": false,
      "stateMutability": "nonpayable",
      "type": "function"
    },
    {
      "constant": true,
      "inputs": [],
      "name": "g",
      "outputs": [
        {
          "internalType": "address",
          "name": "house",
          "type": "address"
        },
        {
          "internalType": "address",
          "name": "starter",
          "type": "address"
        },
        {
          "internalType": "address",
          "name": "joiner",
          "type": "address"
        },
        {
          "internalType": "address",
          "name": "winner",
          "type": "address"
        },
        {
          "internalType": "uint256",
          "name": "amount",
          "type": "uint256"
        },
        {
          "internalType": "uint256",
          "name": "balance",
          "type": "uint256"
        },
        {
          "internalType": "uint256",
          "name": "value",
          "type": "uint256"
        },
        {
          "internalType": "uint256",
          "name": "fees",
          "type": "uint256"
        },
        {
          "internalType": "bool",
          "name": "heads",
          "type": "bool"
        }
      ],
      "payable": false,
      "stateMutability": "view",
      "type": "function"
    },
    {
      "constant": true,
      "inputs": [],
      "name": "getOwner",
      "outputs": [
        {
          "internalType": "address",
          "name": "",
          "type": "address"
        }
      ],
      "payable": false,
      "stateMutability": "view",
      "type": "function"
    },
    {
      "constant": true,
      "inputs": [],
      "name": "getState",
      "outputs": [
        {
          "internalType": "uint256",
          "name": "",
          "type": "uint256"
        }
      ],
      "payable": false,
      "stateMutability": "view",
      "type": "function"
    },
    {
      "constant": false,
      "inputs": [],
      "name": "join",
      "outputs": [],
      "payable": true,
      "stateMutability": "payable",
      "type": "function"
    },
    {
      "constant": false,
      "inputs": [],
      "name": "claim",
      "outputs": [],
      "payable": false,
      "stateMutability": "nonpayable",
      "type": "function"
    },
    {
      "constant": false,
      "inputs": [],
      "name": "cancel",
      "outputs": [],
      "payable": false,
      "stateMutability": "nonpayable",
      "type": "function"
    },
    {
      "constant": false,
      "inputs": [],
      "name": "collect",
      "outputs": [],
      "payable": false,
      "stateMutability": "nonpayable",
      "type": "function"
    }
  ],
  "bytecode": "0x608060405260405162004df038038062004df0833981810160405260408110156200002957600080fd5b8101908080519060200190929190805190602001909291905050506001336000806101000a81548173ffffffffffffffffffffffffffffffffffffffff021916908373ffffffffffffffffffffffffffffffffffffffff1602179055508060018190555050620000a3603060f81b6200024160201b60201c565b662386f26fc10000341162000120576040517f08c379a00000000000000000000000000000000000000000000000000000000081526004018080602001828103825260118152602001807f4e6f7420656e6f7567682076616c75652e00000000000000000000000000000081525060200191505060405180910390fd5b81600760000160006101000a81548173ffffffffffffffffffffffffffffffffffffffff021916908373ffffffffffffffffffffffffffffffffffffffff16021790555032600760010160006101000a81548173ffffffffffffffffffffffffffffffffffffffff021916908373ffffffffffffffffffffffffffffffffffffffff16021790555034600760050160008282540192505081905550346007600601819055503460076004018190555080600760080160006101000a81548160ff02191690831515021790555062000222600760010160009054906101000a900473ffffffffffffffffffffffffffffffffffffffff16620005a760201b60201c565b6200023960006200066e60201b620015081760201c565b505062000d6f565b600073ffffffffffffffffffffffffffffffffffffffff16600360009054906101000a900473ffffffffffffffffffffffffffffffffffffffff1673ffffffffffffffffffffffffffffffffffffffff161480620002d157506000620002cf600360009054906101000a900473ffffffffffffffffffffffffffffffffffffffff16620006b160201b60201c565b145b15620002eb57620002e96000620006bc60201b60201c565b505b600360009054906101000a900473ffffffffffffffffffffffffffffffffffffffff1673ffffffffffffffffffffffffffffffffffffffff166338cc48316040518163ffffffff1660e01b8152600401602060405180830381600087803b1580156200035657600080fd5b505af11580156200036b573d6000803e3d6000fd5b505050506040513d60208110156200038257600080fd5b810190808051906020019092919050505073ffffffffffffffffffffffffffffffffffffffff16600260009054906101000a900473ffffffffffffffffffffffffffffffffffffffff1673ffffffffffffffffffffffffffffffffffffffff1614620004d157600360009054906101000a900473ffffffffffffffffffffffffffffffffffffffff1673ffffffffffffffffffffffffffffffffffffffff166338cc48316040518163ffffffff1660e01b8152600401602060405180830381600087803b1580156200045357600080fd5b505af115801562000468573d6000803e3d6000fd5b505050506040513d60208110156200047f57600080fd5b8101908080519060200190929190505050600260006101000a81548173ffffffffffffffffffffffffffffffffffffffff021916908373ffffffffffffffffffffffffffffffffffffffff1602179055505b600260009054906101000a900473ffffffffffffffffffffffffffffffffffffffff1673ffffffffffffffffffffffffffffffffffffffff1663688dcfd7826040518263ffffffff1660e01b815260040180827effffffffffffffffffffffffffffffffffffffffffffffffffffffffffffff19167effffffffffffffffffffffffffffffffffffffffffffffffffffffffffffff19168152602001915050600060405180830381600087803b1580156200058b57600080fd5b505af1158015620005a0573d6000803e3d6000fd5b5050505050565b806000806101000a81548173ffffffffffffffffffffffffffffffffffffffff021916908373ffffffffffffffffffffffffffffffffffffffff1602179055507fa2ea9883a321a3e97b8266c2b078bfeec6d50c711ed71f874a90d500ae2eaf366000809054906101000a900473ffffffffffffffffffffffffffffffffffffffff16604051808273ffffffffffffffffffffffffffffffffffffffff1673ffffffffffffffffffffffffffffffffffffffff16815260200191505060405180910390a150565b806001819055507f3c20f49e01bfae9c61bfff26b5d8341dd8463f895dd1db3d003cada4e59506d76001546040518082815260200191505060405180910390a150565b6000813b9050919050565b6000620006ce620006d560201b60201c565b9050919050565b600080620006fd731d3b2638a7cc9f2cb3d298a3da7a90b67e5506ed620006b160201b60201c565b1115620007a957731d3b2638a7cc9f2cb3d298a3da7a90b67e5506ed600360006101000a81548173ffffffffffffffffffffffffffffffffffffffff021916908373ffffffffffffffffffffffffffffffffffffffff1602179055506200079f6040518060400160405280600b81526020017f6574685f6d61696e6e657400000000000000000000000000000000000000000081525062000ca460201b60201c565b6001905062000ca1565b6000620007d073c03a2615d5efaf5f49f60b7bb6583eaec212fdf1620006b160201b60201c565b11156200087c5773c03a2615d5efaf5f49f60b7bb6583eaec212fdf1600360006101000a81548173ffffffffffffffffffffffffffffffffffffffff021916908373ffffffffffffffffffffffffffffffffffffffff160217905550620008726040518060400160405280600c81526020017f6574685f726f707374656e33000000000000000000000000000000000000000081525062000ca460201b60201c565b6001905062000ca1565b6000620008a373b7a07bcf2ba2f2703b24c0691b5278999c59ac7e620006b160201b60201c565b11156200094f5773b7a07bcf2ba2f2703b24c0691b5278999c59ac7e600360006101000a81548173ffffffffffffffffffffffffffffffffffffffff021916908373ffffffffffffffffffffffffffffffffffffffff160217905550620009456040518060400160405280600981526020017f6574685f6b6f76616e000000000000000000000000000000000000000000000081525062000ca460201b60201c565b6001905062000ca1565b60006200097673146500cfd35b22e4a392fe0adc06de1a1368ed48620006b160201b60201c565b111562000a225773146500cfd35b22e4a392fe0adc06de1a1368ed48600360006101000a81548173ffffffffffffffffffffffffffffffffffffffff021916908373ffffffffffffffffffffffffffffffffffffffff16021790555062000a186040518060400160405280600b81526020017f6574685f72696e6b65627900000000000000000000000000000000000000000081525062000ca460201b60201c565b6001905062000ca1565b600062000a4973a2998efd205fb9d4b4963afb70778d6354ad3a41620006b160201b60201c565b111562000af55773a2998efd205fb9d4b4963afb70778d6354ad3a41600360006101000a81548173ffffffffffffffffffffffffffffffffffffffff021916908373ffffffffffffffffffffffffffffffffffffffff16021790555062000aeb6040518060400160405280600a81526020017f6574685f676f65726c690000000000000000000000000000000000000000000081525062000ca460201b60201c565b6001905062000ca1565b600062000b1c736f485c8bf6fc43ea212e93bbf8ce046c7f1cb475620006b160201b60201c565b111562000b8257736f485c8bf6fc43ea212e93bbf8ce046c7f1cb475600360006101000a81548173ffffffffffffffffffffffffffffffffffffffff021916908373ffffffffffffffffffffffffffffffffffffffff1602179055506001905062000ca1565b600062000ba97320e12a1f859b3feae5fb2a0a32c18f5a65555bbf620006b160201b60201c565b111562000c0f577320e12a1f859b3feae5fb2a0a32c18f5a65555bbf600360006101000a81548173ffffffffffffffffffffffffffffffffffffffff021916908373ffffffffffffffffffffffffffffffffffffffff1602179055506001905062000ca1565b600062000c367351efaf4c8b3c9afbd5ab9f4bbc82784ab6ef8faa620006b160201b60201c565b111562000c9c577351efaf4c8b3c9afbd5ab9f4bbc82784ab6ef8faa600360006101000a81548173ffffffffffffffffffffffffffffffffffffffff021916908373ffffffffffffffffffffffffffffffffffffffff1602179055506001905062000ca1565b600090505b90565b806004908051906020019062000cbc92919062000cc0565b5050565b828054600181600116156101000203166002900490600052602060002090601f016020900481019282601f1062000d0357805160ff191683800117855562000d34565b8280016001018555821562000d34579182015b8281111562000d3357825182559160200191906001019062000d16565b5b50905062000d43919062000d47565b5090565b62000d6c91905b8082111562000d6857600081600090555060010162000d4e565b5090565b90565b6140718062000d7f6000396000f3fe6080604052600436106100915760003560e01c8063893d20e811610059578063893d20e814610364578063b688a363146103bb578063e2179b8e146103c5578063e5225381146104dc578063ea8a1af0146104f357610091565b80631865c57d1461009657806327dc297e146100c157806338bbfa50146101935780634e71d92d146102fc5780635c19a95c14610313575b600080fd5b3480156100a257600080fd5b506100ab61050a565b6040518082815260200191505060405180910390f35b3480156100cd57600080fd5b50610191600480360360408110156100e457600080fd5b81019080803590602001909291908035906020019064010000000081111561010b57600080fd5b82018360208201111561011d57600080fd5b8035906020019184600183028401116401000000008311171561013f57600080fd5b91908080601f016020809104026020016040519081016040528093929190818152602001838380828437600081840152601f19601f820116905080830192505050505050509192919290505050610514565b005b34801561019f57600080fd5b506102fa600480360360608110156101b657600080fd5b8101908080359060200190929190803590602001906401000000008111156101dd57600080fd5b8201836020820111156101ef57600080fd5b8035906020019184600183028401116401000000008311171561021157600080fd5b91908080601f016020809104026020016040519081016040528093929190818152602001838380828437600081840152601f19601f8201169050808301925050505050505091929192908035906020019064010000000081111561027457600080fd5b82018360208201111561028657600080fd5b803590602001918460018302840111640100000000831117156102a857600080fd5b91908080601f016020809104026020016040519081016040528093929190818152602001838380828437600081840152601f19601f820116905080830192505050505050509192919290505050610557565b005b34801561030857600080fd5b5061031161062f565b005b34801561031f57600080fd5b506103626004803603602081101561033657600080fd5b81019080803573ffffffffffffffffffffffffffffffffffffffff16906020019092919050505061081a565b005b34801561037057600080fd5b506103796108e8565b604051808273ffffffffffffffffffffffffffffffffffffffff1673ffffffffffffffffffffffffffffffffffffffff16815260200191505060405180910390f35b6103c3610911565b005b3480156103d157600080fd5b506103da610b11565b604051808a73ffffffffffffffffffffffffffffffffffffffff1673ffffffffffffffffffffffffffffffffffffffff1681526020018973ffffffffffffffffffffffffffffffffffffffff1673ffffffffffffffffffffffffffffffffffffffff1681526020018873ffffffffffffffffffffffffffffffffffffffff1673ffffffffffffffffffffffffffffffffffffffff1681526020018773ffffffffffffffffffffffffffffffffffffffff1673ffffffffffffffffffffffffffffffffffffffff16815260200186815260200185815260200184815260200183815260200182151515158152602001995050505050505050505060405180910390f35b3480156104e857600080fd5b506104f1610bda565b005b3480156104ff57600080fd5b50610508610d38565b005b6000600154905090565b610553828260006040519080825280601f01601f19166020018201604052801561054d5781602001600182028038833980820191505090505b50610557565b5050565b61055f610e96565b73ffffffffffffffffffffffffffffffffffffffff163373ffffffffffffffffffffffffffffffffffffffff161461059657600080fd5b60006105a38484846111b6565b60ff16146105ad57fe5b61062a826040516020018082805190602001908083835b602083106105e757805182526020820191506020810190506020830392506105c4565b6001836020036101000a0380198251168184511680821785525050505050509050019150506040516020818303038152906040528051906020012060001c6112e6565b505050565b6000809054906101000a900473ffffffffffffffffffffffffffffffffffffffff1673ffffffffffffffffffffffffffffffffffffffff163373ffffffffffffffffffffffffffffffffffffffff16146106f1576040517f08c379a000000000000000000000000000000000000000000000000000000000815260040180806020018281038252600e8152602001807f4163636573732064656e6965642e00000000000000000000000000000000000081525060200191505060405180910390fd5b6002600154811461076a576040517f08c379a000000000000000000000000000000000000000000000000000000000815260040180806020018281038252601b8152602001807f4163636573732064656e6965642e2057726f6e672073746174652e000000000081525060200191505060405180910390fd5b6007600601546007600501541161077d57fe5b600760060154600760050154036007600501819055506107c1600760000160009054906101000a900473ffffffffffffffffffffffffffffffffffffffff16611441565b6107cb6003611508565b3373ffffffffffffffffffffffffffffffffffffffff166108fc6007600601549081150290604051600060405180830381858888f19350505050158015610816573d6000803e3d6000fd5b5050565b6000809054906101000a900473ffffffffffffffffffffffffffffffffffffffff1673ffffffffffffffffffffffffffffffffffffffff163373ffffffffffffffffffffffffffffffffffffffff16146108dc576040517f08c379a000000000000000000000000000000000000000000000000000000000815260040180806020018281038252600e8152602001807f4163636573732064656e6965642e00000000000000000000000000000000000081525060200191505060405180910390fd5b6108e581611441565b50565b60008060009054906101000a900473ffffffffffffffffffffffffffffffffffffffff16905090565b6000600154811461098a576040517f08c379a000000000000000000000000000000000000000000000000000000000815260040180806020018281038252601b8152602001807f4163636573732064656e6965642e2057726f6e672073746174652e000000000081525060200191505060405180910390fd5b600760040154341015610a05576040517f08c379a00000000000000000000000000000000000000000000000000000000081526004018080602001828103825260118152602001807f4e6f7420656e6f7567682076616c75652e00000000000000000000000000000081525060200191505060405180910390fd5b32600760020160006101000a81548173ffffffffffffffffffffffffffffffffffffffff021916908373ffffffffffffffffffffffffffffffffffffffff160217905550346007600501600082825401925050819055506007600501546007600401546002021115610a7357fe5b60006007600501549050610a8561154b565b3073ffffffffffffffffffffffffffffffffffffffff163160076005018190555060076005015481036007800181905550606460026064036007600501540281610acb57fe5b04600760060181905550610b03600760000160009054906101000a900473ffffffffffffffffffffffffffffffffffffffff16611441565b610b0d6001611508565b5050565b60078060000160009054906101000a900473ffffffffffffffffffffffffffffffffffffffff16908060010160009054906101000a900473ffffffffffffffffffffffffffffffffffffffff16908060020160009054906101000a900473ffffffffffffffffffffffffffffffffffffffff16908060030160009054906101000a900473ffffffffffffffffffffffffffffffffffffffff16908060040154908060050154908060060154908060070154908060080160009054906101000a900460ff16905089565b6000809054906101000a900473ffffffffffffffffffffffffffffffffffffffff1673ffffffffffffffffffffffffffffffffffffffff163373ffffffffffffffffffffffffffffffffffffffff1614610c9c576040517f08c379a000000000000000000000000000000000000000000000000000000000815260040180806020018281038252600e8152602001807f4163636573732064656e6965642e00000000000000000000000000000000000081525060200191505060405180910390fd5b60036001548114610d15576040517f08c379a000000000000000000000000000000000000000000000000000000000815260040180806020018281038252601b8152602001807f4163636573732064656e6965642e2057726f6e672073746174652e000000000081525060200191505060405180910390fd5b610d1f6004611508565b3373ffffffffffffffffffffffffffffffffffffffff16ff5b6000809054906101000a900473ffffffffffffffffffffffffffffffffffffffff1673ffffffffffffffffffffffffffffffffffffffff163373ffffffffffffffffffffffffffffffffffffffff1614610dfa576040517f08c379a000000000000000000000000000000000000000000000000000000000815260040180806020018281038252600e8152602001807f4163636573732064656e6965642e00000000000000000000000000000000000081525060200191505060405180910390fd5b60006001548114610e73576040517f08c379a000000000000000000000000000000000000000000000000000000000815260040180806020018281038252601b8152602001807f4163636573732064656e6965642e2057726f6e672073746174652e000000000081525060200191505060405180910390fd5b610e7d6005611508565b3373ffffffffffffffffffffffffffffffffffffffff16ff5b60008073ffffffffffffffffffffffffffffffffffffffff16600360009054906101000a900473ffffffffffffffffffffffffffffffffffffffff1673ffffffffffffffffffffffffffffffffffffffff161480610f1e57506000610f1c600360009054906101000a900473ffffffffffffffffffffffffffffffffffffffff1661155e565b145b15610f2f57610f2d6000611569565b505b600360009054906101000a900473ffffffffffffffffffffffffffffffffffffffff1673ffffffffffffffffffffffffffffffffffffffff166338cc48316040518163ffffffff1660e01b8152600401602060405180830381600087803b158015610f9957600080fd5b505af1158015610fad573d6000803e3d6000fd5b505050506040513d6020811015610fc357600080fd5b810190808051906020019092919050505073ffffffffffffffffffffffffffffffffffffffff16600260009054906101000a900473ffffffffffffffffffffffffffffffffffffffff1673ffffffffffffffffffffffffffffffffffffffff161461110e57600360009054906101000a900473ffffffffffffffffffffffffffffffffffffffff1673ffffffffffffffffffffffffffffffffffffffff166338cc48316040518163ffffffff1660e01b8152600401602060405180830381600087803b15801561109257600080fd5b505af11580156110a6573d6000803e3d6000fd5b505050506040513d60208110156110bc57600080fd5b8101908080519060200190929190505050600260006101000a81548173ffffffffffffffffffffffffffffffffffffffff021916908373ffffffffffffffffffffffffffffffffffffffff1602179055505b600260009054906101000a900473ffffffffffffffffffffffffffffffffffffffff1673ffffffffffffffffffffffffffffffffffffffff1663c281d19e6040518163ffffffff1660e01b815260040160206040518083038186803b15801561117657600080fd5b505afa15801561118a573d6000803e3d6000fd5b505050506040513d60208110156111a057600080fd5b8101908080519060200190929190505050905090565b60007f4c00000000000000000000000000000000000000000000000000000000000000826000815181106111e657fe5b602001015160f81c60f81b7effffffffffffffffffffffffffffffffffffffffffffffffffffffffffffff191614158061127957507f50000000000000000000000000000000000000000000000000000000000000008260018151811061124957fe5b602001015160f81c60f81b7effffffffffffffffffffffffffffffffffffffffffffffffffffffffffffff191614155b806112a55750600160ff168260028151811061129157fe5b602001015160f81c60f81b60f81c60ff1614155b156112b357600190506112df565b60006112c88386866112c361157a565b61161c565b9050806112d95760029150506112df565b60009150505b9392505050565b60018054811461135e576040517f08c379a000000000000000000000000000000000000000000000000000000000815260040180806020018281038252601b8152602001807f4163636573732064656e6965642e2057726f6e672073746174652e000000000081525060200191505060405180910390fd5b60006002838161136a57fe5b061461139b57600760020160009054906101000a900473ffffffffffffffffffffffffffffffffffffffff166113c2565b600760010160009054906101000a900473ffffffffffffffffffffffffffffffffffffffff165b600760030160006101000a81548173ffffffffffffffffffffffffffffffffffffffff021916908373ffffffffffffffffffffffffffffffffffffffff160217905550611433600760030160009054906101000a900473ffffffffffffffffffffffffffffffffffffffff16611441565b61143d6002611508565b5050565b806000806101000a81548173ffffffffffffffffffffffffffffffffffffffff021916908373ffffffffffffffffffffffffffffffffffffffff1602179055507fa2ea9883a321a3e97b8266c2b078bfeec6d50c711ed71f874a90d500ae2eaf366000809054906101000a900473ffffffffffffffffffffffffffffffffffffffff16604051808273ffffffffffffffffffffffffffffffffffffffff1673ffffffffffffffffffffffffffffffffffffffff16815260200191505060405180910390a150565b806001819055507f3c20f49e01bfae9c61bfff26b5d8341dd8463f895dd1db3d003cada4e59506d76001546040518082815260200191505060405180910390a150565b61155b600060076207a120611cc7565b50565b6000813b9050919050565b6000611573612262565b9050919050565b606060048054600181600116156101000203166002900480601f0160208091040260200160405190810160405280929190818152602001828054600181600116156101000203166002900480156116125780601f106115e757610100808354040283529160200191611612565b820191906000526020600020905b8154815290600101906020018083116115f557829003601f168201915b5050505050905090565b600080602060028760458151811061163057fe5b602001015160f81c60f81b60f81c60ff1601604401019050606060206040519080825280601f01601f19166020018201604052801561167e5781602001600182028038833980820191505090505b509050611690878360208460006127b9565b50600284876040516020018083805190602001908083835b602083106116cb57805182526020820191506020810190506020830392506116a8565b6001836020036101000a038019825116818451168082178552505050505050905001828152602001925050506040516020818303038152906040526040518082805190602001908083835b602083106117395780518252602082019150602081019050602083039250611716565b6001836020036101000a038019825116818451168082178552505050505050905001915050602060405180830381855afa15801561177b573d6000803e3d6000fd5b5050506040513d602081101561179057600080fd5b810190808051906020019092919050505060405160200180828152602001915050604051602081830303815290604052805190602001208180519060200120146117df57600092505050611cbf565b606060028860016049860101815181106117f557fe5b602001015160f81c60f81b60f81c60ff16016040519080825280601f01601f1916602001820160405280156118395781602001600182028038833980820191505090505b50905061184e886049850183518460006127b9565b506119196002826040518082805190602001908083835b602083106118885780518252602082019150602081019050602083039250611865565b6001836020036101000a038019825116818451168082178552505050505050905001915050602060405180830381855afa1580156118ca573d6000803e3d6000fd5b5050506040513d60208110156118df57600080fd5b8101908080519060200190929190505050878a600860208801018151811061190357fe5b602001015160f81c60f81b60f81c60ff16612818565b6119295760009350505050611cbf565b606060296040519080825280601f01601f19166020018201604052801561195f5781602001600182028038833980820191505090505b509050611974896020860160298460006127b9565b506060604080519080825280601f01601f1916602001820160405280156119aa5781602001600182028038833980820191505090505b50905060006041845160296020890101010190506119d08b6040830360408560006127b9565b5060006002836040518082805190602001908083835b60208310611a0957805182526020820191506020810190506020830392506119e6565b6001836020036101000a038019825116818451168082178552505050505050905001915050602060405180830381855afa158015611a4b573d6000803e3d6000fd5b5050506040513d6020811015611a6057600080fd5b8101908080519060200190929190505050905083816040516020018083805190602001908083835b60208310611aab5780518252602082019150602081019050602083039250611a88565b6001836020036101000a0380198251168184511680821785525050505050509050018281526020019250505060405160208183030381529060405280519060200120600560008d8152602001908152602001600020541415611b2357600560008c815260200190815260200160002060009055611b33565b6000975050505050505050611cbf565b606060496040519080825280601f01601f191660200182016040528015611b695781602001600182028038833980820191505090505b509050611b7b8d8960498460006127b9565b50611c246002826040518082805190602001908083835b60208310611bb55780518252602082019150602081019050602083039250611b92565b6001836020036101000a038019825116818451168082178552505050505050905001915050602060405180830381855afa158015611bf7573d6000803e3d6000fd5b5050506040513d6020811015611c0c57600080fd5b810190808051906020019092919050505087866128c8565b611c3957600098505050505050505050611cbf565b6006600083815260200190815260200160002060009054906101000a900460ff16611c9357611c688d84612a86565b6006600084815260200190815260200160002060006101000a81548160ff0219169083151502179055505b6006600083815260200190815260200160002060009054906101000a900460ff16985050505050505050505b949350505050565b60008083118015611cd9575060208311155b611ce257600080fd5b600a84029350606060016040519080825280601f01601f191660200182016040528015611d1e5781602001600182028038833980820191505090505b5090508360f81b81600081518110611d3257fe5b60200101907effffffffffffffffffffffffffffffffffffffffffffffffffffffffffffff1916908160001a905350606060206040519080825280601f01601f191660200182016040528015611d975781602001600182028038833980820191505090505b509050606060206040519080825280601f01601f191660200182016040528015611dd05781602001600182028038833980820191505090505b5090506000611ddd612e9e565b905060208352424118600143034018602084015260208252806020830152606060206040519080825280601f01601f191660200182016040528015611e315781602001600182028038833980820191505090505b509050886020820152606060086040519080825280601f01601f191660200182016040528015611e705781602001600182028038833980820191505090505b509050611e8382601860088460006127b9565b50611e8c613f16565b60405180608001604052808781526020018881526020018681526020018481525090506000611ef16040518060400160405280600681526020017f72616e646f6d0000000000000000000000000000000000000000000000000000815250838c6131be565b9050606060086040519080825280601f01601f191660200182016040528015611f295781602001600182028038833980820191505090505b50905060208401517f0100000000000000000000000000000000000000000000000000000000000000810460278301537e01000000000000000000000000000000000000000000000000000000000000810460268301537d010000000000000000000000000000000000000000000000000000000000810460258301537c0100000000000000000000000000000000000000000000000000000000810460248301537b01000000000000000000000000000000000000000000000000000000810460238301537a01000000000000000000000000000000000000000000000000000081046022830153790100000000000000000000000000000000000000000000000000810460218301537801000000000000000000000000000000000000000000000000810460208301535061224f82828560016004811061206857fe5b602002015160028760006004811061207c57fe5b60200201516040518082805190602001908083835b602083106120b45780518252602082019150602081019050602083039250612091565b6001836020036101000a038019825116818451168082178552505050505050905001915050602060405180830381855afa1580156120f6573d6000803e3d6000fd5b5050506040513d602081101561210b57600080fd5b81019080805190602001909291905050508760026004811061212957fe5b60200201516040516020018085805190602001908083835b602083106121645780518252602082019150602081019050602083039250612141565b6001836020036101000a03801982511681845116808217855250505050505090500184805190602001908083835b602083106121b55780518252602082019150602081019050602083039250612192565b6001836020036101000a03801982511681845116808217855250505050505090500183815260200182805190602001908083835b6020831061220c57805182526020820191506020810190506020830392506121e9565b6001836020036101000a0380198251168184511680821785525050505050509050019450505050506040516020818303038152906040528051906020012061352d565b8199505050505050505050509392505050565b600080612282731d3b2638a7cc9f2cb3d298a3da7a90b67e5506ed61155e565b111561232457731d3b2638a7cc9f2cb3d298a3da7a90b67e5506ed600360006101000a81548173ffffffffffffffffffffffffffffffffffffffff021916908373ffffffffffffffffffffffffffffffffffffffff16021790555061231b6040518060400160405280600b81526020017f6574685f6d61696e6e6574000000000000000000000000000000000000000000815250613549565b600190506127b6565b600061234373c03a2615d5efaf5f49f60b7bb6583eaec212fdf161155e565b11156123e55773c03a2615d5efaf5f49f60b7bb6583eaec212fdf1600360006101000a81548173ffffffffffffffffffffffffffffffffffffffff021916908373ffffffffffffffffffffffffffffffffffffffff1602179055506123dc6040518060400160405280600c81526020017f6574685f726f707374656e330000000000000000000000000000000000000000815250613549565b600190506127b6565b600061240473b7a07bcf2ba2f2703b24c0691b5278999c59ac7e61155e565b11156124a65773b7a07bcf2ba2f2703b24c0691b5278999c59ac7e600360006101000a81548173ffffffffffffffffffffffffffffffffffffffff021916908373ffffffffffffffffffffffffffffffffffffffff16021790555061249d6040518060400160405280600981526020017f6574685f6b6f76616e0000000000000000000000000000000000000000000000815250613549565b600190506127b6565b60006124c573146500cfd35b22e4a392fe0adc06de1a1368ed4861155e565b11156125675773146500cfd35b22e4a392fe0adc06de1a1368ed48600360006101000a81548173ffffffffffffffffffffffffffffffffffffffff021916908373ffffffffffffffffffffffffffffffffffffffff16021790555061255e6040518060400160405280600b81526020017f6574685f72696e6b656279000000000000000000000000000000000000000000815250613549565b600190506127b6565b600061258673a2998efd205fb9d4b4963afb70778d6354ad3a4161155e565b11156126285773a2998efd205fb9d4b4963afb70778d6354ad3a41600360006101000a81548173ffffffffffffffffffffffffffffffffffffffff021916908373ffffffffffffffffffffffffffffffffffffffff16021790555061261f6040518060400160405280600a81526020017f6574685f676f65726c6900000000000000000000000000000000000000000000815250613549565b600190506127b6565b6000612647736f485c8bf6fc43ea212e93bbf8ce046c7f1cb47561155e565b11156126ab57736f485c8bf6fc43ea212e93bbf8ce046c7f1cb475600360006101000a81548173ffffffffffffffffffffffffffffffffffffffff021916908373ffffffffffffffffffffffffffffffffffffffff160217905550600190506127b6565b60006126ca7320e12a1f859b3feae5fb2a0a32c18f5a65555bbf61155e565b111561272e577320e12a1f859b3feae5fb2a0a32c18f5a65555bbf600360006101000a81548173ffffffffffffffffffffffffffffffffffffffff021916908373ffffffffffffffffffffffffffffffffffffffff160217905550600190506127b6565b600061274d7351efaf4c8b3c9afbd5ab9f4bbc82784ab6ef8faa61155e565b11156127b1577351efaf4c8b3c9afbd5ab9f4bbc82784ab6ef8faa600360006101000a81548173ffffffffffffffffffffffffffffffffffffffff021916908373ffffffffffffffffffffffffffffffffffffffff160217905550600190506127b6565b600090505b90565b60606000828501905080845110156127d057600080fd5b600086602001905060008460200190505b86886020010182101561280957818901518082880152506020820191506020810190506127e1565b85935050505095945050505050565b600080600190508284511461282c57600080fd5b60008090505b838110156128bc5784818151811061284657fe5b602001015160f81c60f81b7effffffffffffffffffffffffffffffffffffffffffffffffffffffffffffff191686826020811061287f57fe5b1a60f81b7effffffffffffffffffffffffffffffffffffffffffffffffffffffffffffff1916146128af57600091505b8080600101915050612832565b50809150509392505050565b6000806000806000606060206040519080825280601f01601f1916602001820160405280156129065781602001600182028038833980820191505090505b509050600060208960038151811061291a57fe5b602001015160f81c60f81b60f81c60ff16036004019050612940898260208560006127b9565b9150606060206040519080825280601f01601f1916602001820160405280156129785781602001600182028038833980820191505090505b5090506022820191506129b48a60208c600186038151811061299657fe5b602001015160f81c60f81b60f81c60ff1603840160208460006127b9565b905060208301519450602081015193506129d18b601b8787613563565b80975081985050508573ffffffffffffffffffffffffffffffffffffffff16898051906020012060001c73ffffffffffffffffffffffffffffffffffffffff161415612a27576001975050505050505050612a7f565b612a348b601c8787613563565b80975081985050508573ffffffffffffffffffffffffffffffffffffffff16898051906020012060001c73ffffffffffffffffffffffffffffffffffffffff16149750505050505050505b9392505050565b60008060606002856001860181518110612a9c57fe5b602001015160f81c60f81b60f81c60ff16016040519080825280601f01601f191660200182016040528015612ae05781602001600182028038833980820191505090505b509050612af2858583518460006127b9565b506060604080519080825280601f01601f191660200182016040528015612b285781602001600182028038833980820191505090505b509050612b3b86600460408460006127b9565b50606060626040519080825280601f01601f191660200182016040528015612b725781602001600182028038833980820191505090505b509050600160f81b81600081518110612b8757fe5b60200101907effffffffffffffffffffffffffffffffffffffffffffffffffffffffffffff1916908160001a905350612bc8876041880360418460016127b9565b5060606040518060400160405280602081526020017ffd94fa71bc0ba10d39d464d0d8f465efeef0a2764e3887fcc9df41ded20f505c8152509050612c1381600060208560426127b9565b50612cbc6002836040518082805190602001908083835b60208310612c4d5780518252602082019150602081019050602083039250612c2a565b6001836020036101000a038019825116818451168082178552505050505050905001915050602060405180830381855afa158015612c8f573d6000803e3d6000fd5b5050506040513d6020811015612ca457600080fd5b810190808051906020019092919050505085856128c8565b945084612cd157600095505050505050612e98565b6060604051806060016040528060408152602001613ffd604091399050606060426040519080825280601f01601f191660200182016040528015612d245781602001600182028038833980820191505090505b50905060fe60f81b81600081518110612d3957fe5b60200101907effffffffffffffffffffffffffffffffffffffffffffffffffffffffffffff1916908160001a905350612d788a600360418460016127b9565b50606060028b604581518110612d8a57fe5b602001015160f81c60f81b60f81c60ff16016040519080825280601f01601f191660200182016040528015612dce5781602001600182028038833980820191505090505b509050612de18b604483518460006127b9565b50612e8a6002836040518082805190602001908083835b60208310612e1b5780518252602082019150602081019050602083039250612df8565b6001836020036101000a038019825116818451168082178552505050505050905001915050602060405180830381855afa158015612e5d573d6000803e3d6000fd5b5050506040513d6020811015612e7257600080fd5b810190808051906020019092919050505082856128c8565b975087985050505050505050505b92915050565b60008073ffffffffffffffffffffffffffffffffffffffff16600360009054906101000a900473ffffffffffffffffffffffffffffffffffffffff1673ffffffffffffffffffffffffffffffffffffffff161480612f2657506000612f24600360009054906101000a900473ffffffffffffffffffffffffffffffffffffffff1661155e565b145b15612f3757612f356000611569565b505b600360009054906101000a900473ffffffffffffffffffffffffffffffffffffffff1673ffffffffffffffffffffffffffffffffffffffff166338cc48316040518163ffffffff1660e01b8152600401602060405180830381600087803b158015612fa157600080fd5b505af1158015612fb5573d6000803e3d6000fd5b505050506040513d6020811015612fcb57600080fd5b810190808051906020019092919050505073ffffffffffffffffffffffffffffffffffffffff16600260009054906101000a900473ffffffffffffffffffffffffffffffffffffffff1673ffffffffffffffffffffffffffffffffffffffff161461311657600360009054906101000a900473ffffffffffffffffffffffffffffffffffffffff1673ffffffffffffffffffffffffffffffffffffffff166338cc48316040518163ffffffff1660e01b8152600401602060405180830381600087803b15801561309a57600080fd5b505af11580156130ae573d6000803e3d6000fd5b505050506040513d60208110156130c457600080fd5b8101908080519060200190929190505050600260006101000a81548173ffffffffffffffffffffffffffffffffffffffff021916908373ffffffffffffffffffffffffffffffffffffffff1602179055505b600260009054906101000a900473ffffffffffffffffffffffffffffffffffffffff1673ffffffffffffffffffffffffffffffffffffffff1663abaa5f3e6040518163ffffffff1660e01b815260040160206040518083038186803b15801561317e57600080fd5b505afa158015613192573d6000803e3d6000fd5b505050506040513d60208110156131a857600080fd5b8101908080519060200190929190505050905090565b60008073ffffffffffffffffffffffffffffffffffffffff16600360009054906101000a900473ffffffffffffffffffffffffffffffffffffffff1673ffffffffffffffffffffffffffffffffffffffff16148061324657506000613244600360009054906101000a900473ffffffffffffffffffffffffffffffffffffffff1661155e565b145b15613257576132556000611569565b505b600360009054906101000a900473ffffffffffffffffffffffffffffffffffffffff1673ffffffffffffffffffffffffffffffffffffffff166338cc48316040518163ffffffff1660e01b8152600401602060405180830381600087803b1580156132c157600080fd5b505af11580156132d5573d6000803e3d6000fd5b505050506040513d60208110156132eb57600080fd5b810190808051906020019092919050505073ffffffffffffffffffffffffffffffffffffffff16600260009054906101000a900473ffffffffffffffffffffffffffffffffffffffff1673ffffffffffffffffffffffffffffffffffffffff161461343657600360009054906101000a900473ffffffffffffffffffffffffffffffffffffffff1673ffffffffffffffffffffffffffffffffffffffff166338cc48316040518163ffffffff1660e01b8152600401602060405180830381600087803b1580156133ba57600080fd5b505af11580156133ce573d6000803e3d6000fd5b505050506040513d60208110156133e457600080fd5b8101908080519060200190929190505050600260006101000a81548173ffffffffffffffffffffffffffffffffffffffff021916908373ffffffffffffffffffffffffffffffffffffffff1602179055505b6060600460405190808252806020026020018201604052801561346d57816020015b60608152602001906001900390816134585790505b5090508360006004811061347d57fe5b60200201518160008151811061348f57fe5b6020026020010181905250836001600481106134a757fe5b6020020151816001815181106134b957fe5b6020026020010181905250836002600481106134d157fe5b6020020151816002815181106134e357fe5b6020026020010181905250836003600481106134fb57fe5b60200201518160038151811061350d57fe5b60200260200101819052506135238582856135a7565b9150509392505050565b8060056000848152602001908152602001600020819055505050565b806004908051906020019061355f929190613f3d565b5050565b60008060008060405188815287602082015286604082015285606082015260208160808360006001610bb8f192508051915050818193509350505094509492505050565b60008073ffffffffffffffffffffffffffffffffffffffff16600360009054906101000a900473ffffffffffffffffffffffffffffffffffffffff1673ffffffffffffffffffffffffffffffffffffffff16148061362f5750600061362d600360009054906101000a900473ffffffffffffffffffffffffffffffffffffffff1661155e565b145b156136405761363e6000611569565b505b600360009054906101000a900473ffffffffffffffffffffffffffffffffffffffff1673ffffffffffffffffffffffffffffffffffffffff166338cc48316040518163ffffffff1660e01b8152600401602060405180830381600087803b1580156136aa57600080fd5b505af11580156136be573d6000803e3d6000fd5b505050506040513d60208110156136d457600080fd5b810190808051906020019092919050505073ffffffffffffffffffffffffffffffffffffffff16600260009054906101000a900473ffffffffffffffffffffffffffffffffffffffff1673ffffffffffffffffffffffffffffffffffffffff161461381f57600360009054906101000a900473ffffffffffffffffffffffffffffffffffffffff1673ffffffffffffffffffffffffffffffffffffffff166338cc48316040518163ffffffff1660e01b8152600401602060405180830381600087803b1580156137a357600080fd5b505af11580156137b7573d6000803e3d6000fd5b505050506040513d60208110156137cd57600080fd5b8101908080519060200190929190505050600260006101000a81548173ffffffffffffffffffffffffffffffffffffffff021916908373ffffffffffffffffffffffffffffffffffffffff1602179055505b6000600260009054906101000a900473ffffffffffffffffffffffffffffffffffffffff1673ffffffffffffffffffffffffffffffffffffffff16632ef3accc86856040518363ffffffff1660e01b81526004018080602001838152602001828103825284818151815260200191508051906020019080838360005b838110156138b657808201518184015260208101905061389b565b50505050905090810190601f1680156138e35780820380516001836020036101000a031916815260200191505b509350505050602060405180830381600087803b15801561390357600080fd5b505af1158015613917573d6000803e3d6000fd5b505050506040513d602081101561392d57600080fd5b81019080805190602001909291905050509050823a02670de0b6b3a764000001811115613960576000801b915050613b06565b606061396b85613b0d565b9050600260009054906101000a900473ffffffffffffffffffffffffffffffffffffffff1673ffffffffffffffffffffffffffffffffffffffff1663c55c1cb68360008985896040518663ffffffff1660e01b8152600401808581526020018060200180602001848152602001838103835286818151815260200191508051906020019080838360005b83811015613a105780820151818401526020810190506139f5565b50505050905090810190601f168015613a3d5780820380516001836020036101000a031916815260200191505b50838103825285818151815260200191508051906020019080838360005b83811015613a76578082015181840152602081019050613a5b565b50505050905090810190601f168015613aa35780820380516001836020036101000a031916815260200191505b5096505050505050506020604051808303818588803b158015613ac557600080fd5b505af1158015613ad9573d6000803e3d6000fd5b50505050506040513d6020811015613af057600080fd5b8101908080519060200190929190505050925050505b9392505050565b6060613b17613b8d565b613b1f613fbd565b613b2b81610400613b99565b613b3481613be3565b60008090505b8351811015613b7657613b69848281518110613b5257fe5b602002602001015183613bf190919063ffffffff16565b8080600101915050613b3a565b50613b8081613c16565b8060000151915050919050565b60405180590338823950565b6000819050600060208281613baa57fe5b0614613bc35760208181613bba57fe5b06602003810190505b808360200181815250506040518084526000815281810160405250505050565b613bee816004613c24565b50565b613bfe8260028351613c45565b613c118183613d8590919063ffffffff16565b505050565b613c21816007613c24565b50565b613c41601f60058360ff16901b1783613e3090919063ffffffff16565b5050565b60178111613c7157613c6c8160058460ff16901b60ff161784613e3090919063ffffffff16565b613d80565b60ff8111613cb257613c96601860058460ff16901b1784613e3090919063ffffffff16565b613cac81600185613e709092919063ffffffff16565b50613d7f565b61ffff8111613cf457613cd8601960058460ff16901b1784613e3090919063ffffffff16565b613cee81600285613e709092919063ffffffff16565b50613d7e565b63ffffffff8111613d3857613d1c601a60058460ff16901b1784613e3090919063ffffffff16565b613d3281600485613e709092919063ffffffff16565b50613d7d565b67ffffffffffffffff8111613d7c57613d64601b60058460ff16901b1784613e3090919063ffffffff16565b613d7a81600885613e709092919063ffffffff16565b505b5b5b5b5b505050565b613d8d613fbd565b82602001518360000151518351011115613dbd57613dbc836002613db686602001518651613ed7565b02613ef3565b5b60008060008451905085518051602081830101945086518101825260208701935050505b60208110613e045781518352602083019250602082019150602081039050613de1565b60006001826020036101000a039050801983511681855116818117865250508694505050505092915050565b81602001516001836000015151011115613e5657613e55826002846020015102613ef3565b5b815180516020818301018381536001820183525050505050565b613e78613fbd565b836020015184600001515183011115613ea657613ea5846002613e9f876020015186613ed7565b02613ef3565b5b60006001836101000a0390508451805184818301018684198251161781528582018352505050849150509392505050565b600081831115613ee957829050613eed565b8190505b92915050565b606082600001519050613f068383613b99565b613f108382613d85565b50505050565b60405180608001604052806004905b6060815260200190600190039081613f255790505090565b828054600181600116156101000203166002900490600052602060002090601f016020900481019282601f10613f7e57805160ff1916838001178555613fac565b82800160010185558215613fac579182015b82811115613fab578251825591602001919060010190613f90565b5b509050613fb99190613fd7565b5090565b604051806040016040528060608152602001600081525090565b613ff991905b80821115613ff5576000816000905550600101613fdd565b5090565b9056fe7fb956469c5c9b89840d55b43537e66a98dd4811ea0a27224272c2e5622911e8537a2f8e86a46baec82864e98dd01e9ccc2f8bc5dfc9cbe5a91a290498dd96e4a265627a7a72315820a7c30b167a6df04d51c5f6a47f914ba308e9d91cdf8787d408b74da31bc2b42664736f6c634300050c0032",
  "source": "pragma solidity >= 0.5.0 < 0.6.0;\n\nimport \"./Ownable.sol\";\nimport \"./Stateable.sol\";\nimport \"./usingRandomProvable.sol\";\n\ncontract CoinFlip is Ownable, Stateable, usingRandomProvable {\n    uint256 constant MINIMUM_BET = 0.01 ether;\n    uint256 private constant CUT = 2; // percent\n\n    struct Game {\n        address house;\n        address starter;\n        address joiner;\n        address winner;\n        uint256 amount;\n        uint256 balance;\n        uint256 value;\n        uint256 fees;\n        bool heads;\n    }\n\n    Game public g;\n    \n    // States\n    // 0 = 'open'    \n    // 1 = 'closed'\n    // 2 = 'flipped'\n    // 3 = 'claimed'\n    // 4 = 'done'\n    // 5 = 'canceled'\n\n    constructor(address casinoOwner, bool heads) public payable Stateable(1) {\n        require(msg.value > MINIMUM_BET, \"Not enough value.\");\n        g.house = casinoOwner;\n        g.starter = tx.origin;\n        g.balance += msg.value;\n        g.value = msg.value;\n        g.amount = msg.value;\n        g.heads = heads;\n        \n        setOwner(g.starter);\n        super.setState(0); // 0 = 'open'\n    }\n\n    function join() public payable onlyState(0) {\n        // 0 = 'open'\n        require(msg.value >= g.amount, \"Not enough value.\");\n        g.joiner = tx.origin;\n        g.balance += msg.value;\n        assert((2*g.amount) <= g.balance);   \n\n        uint256 oldBalance = g.balance;\n        getRandomNumber();\n\n        g.balance = address(this).balance;\n        g.fees = oldBalance - g.balance;\n        g.value = (g.balance * (100 - CUT)) / 100;  \n\n        setOwner(g.house); // while spinning\n        super.setState(1); // 1 = 'closed'\n    }\n\n    function receiveRandomNumber(uint256 random) internal onlyState(1) {\n        g.winner = ((random % 2) == 0) ? g.starter : g.joiner;\n        setOwner(g.winner);\n        super.setState(2); // 2 = 'flipped'\n    }\n\n    function claim() public onlyOwner() onlyState(2) {\n        // 2 = 'flipped'\n        assert(g.balance > g.value);\n        g.balance = g.balance - g.value;\n        setOwner(g.house);\n        super.setState(3); // 3 = 'claimed'\n        msg.sender.transfer(g.value);\n    }\n\n    function cancel() public onlyOwner() onlyState(0) {\n        // 0 = 'open'\n        super.setState(5); // 5 = 'canceled'\n        selfdestruct(msg.sender);\n    }\n\n    function collect() public onlyOwner() onlyState(3) {\n        // 3 = 'claimed'        \n        super.setState(4); // 4 = 'done'\n        selfdestruct(msg.sender);\n    }\n\n}\n",
  "sourcePath": "/c/Users/mawiz/Workspace/CasinoContract/contracts/CoinFlip.sol",
  "compiler": {
    "name": "solc",
    "version": "0.5.12+commit.7709ece9.Emscripten.clang"
  },
  "schemaVersion": "3.0.20",
  "updatedAt": "2020-05-02T10:25:36.009Z",
  "devdoc": {
    "methods": {
      "__callback(bytes32,string)": {
        "details": "The following `__callback` functions are just placeholders ideally     meant to be defined in child contract when proofs are used.     The function bodies simply silence compiler warnings."
      }
    }
  },
  "userdoc": {
    "methods": {}
  }
}