{
  "contractName": "Stateable",
  "abi": [
    {
      "inputs": [
        {
          "internalType": "uint256",
          "name": "initial",
          "type": "uint256"
        }
      ],
      "payable": false,
      "stateMutability": "nonpayable",
      "type": "constructor"
    },
    {
      "anonymous": false,
      "inputs": [
        {
          "indexed": false,
          "internalType": "uint256",
          "name": "newState",
          "type": "uint256"
        }
      ],
      "name": "StateChanged",
      "type": "event"
    },
    {
      "constant": true,
      "inputs": [],
      "name": "getState",
      "outputs": [
        {
          "internalType": "uint256",
          "name": "",
          "type": "uint256"
        }
      ],
      "payable": false,
      "stateMutability": "view",
      "type": "function"
    }
  ],
  "bytecode": "0x608060405234801561001057600080fd5b506040516100e13803806100e18339818101604052602081101561003357600080fd5b8101908080519060200190929190505050806000819055505060878061005a6000396000f3fe6080604052348015600f57600080fd5b506004361060285760003560e01c80631865c57d14602d575b600080fd5b60336049565b6040518082815260200191505060405180910390f35b6000805490509056fea265627a7a72315820bbe5a241a1f415a650161e075c3efab9fc1ec47d1194c2aa50040d55fc03045964736f6c634300050c0032",
  "source": "pragma solidity >=0.4.21 <0.6.0;\n\n\ncontract Stateable {\n    uint256 private state;\n\n    event StateChanged(uint256 newState);\n\n    modifier onlyState(uint256 expected) {\n        require(expected == state, \"Access denied. Wrong state.\");\n        _; //Continue execution\n    }\n\n    constructor(uint256 initial) public {\n        state = initial;\n    }\n\n    function getState() public view returns (uint256) {\n        return state;\n    }\n\n    function setState(uint256 newState) internal {\n        state = newState;\n        emit StateChanged(state);\n    }\n}\n",
  "sourcePath": "/c/Users/mawiz/Workspace/CasinoContract/contracts/Stateable.sol",
  "compiler": {
    "name": "solc",
    "version": "0.5.12+commit.7709ece9.Emscripten.clang"
  },
  "schemaVersion": "3.0.20",
  "updatedAt": "2020-05-02T10:25:36.018Z",
  "devdoc": {
    "methods": {}
  },
  "userdoc": {
    "methods": {}
  }
}