{
  "contractName": "Stateable",
  "abi": [
    {
      "inputs": [
        {
          "internalType": "uint256",
          "name": "initial",
          "type": "uint256"
        }
      ],
      "payable": false,
      "stateMutability": "nonpayable",
      "type": "constructor"
    },
    {
      "anonymous": false,
      "inputs": [
        {
          "indexed": false,
          "internalType": "uint256",
          "name": "newState",
          "type": "uint256"
        }
      ],
      "name": "StateChanged",
      "type": "event"
    },
    {
      "constant": true,
      "inputs": [],
      "name": "getState",
      "outputs": [
        {
          "internalType": "uint256",
          "name": "",
          "type": "uint256"
        }
      ],
      "payable": false,
      "stateMutability": "view",
      "type": "function"
    }
  ],
  "bytecode": "0x608060405234801561001057600080fd5b506040516101313803806101318339818101604052602081101561003357600080fd5b81019080805190602001909291905050506100538161005960201b60201c565b5061009c565b806000819055507f3c20f49e01bfae9c61bfff26b5d8341dd8463f895dd1db3d003cada4e59506d76000546040518082815260200191505060405180910390a150565b6087806100aa6000396000f3fe6080604052348015600f57600080fd5b506004361060285760003560e01c80631865c57d14602d575b600080fd5b60336049565b6040518082815260200191505060405180910390f35b6000805490509056fea265627a7a723158208de4c621492e1e1d52a9fad969b6e721183d044ffe54792be2f10d335fd1554164736f6c634300050c0032",
  "source": "pragma solidity >=0.4.21 <0.6.0;\n\n\ncontract Stateable {\n    uint256 private state;\n\n    event StateChanged(uint256 newState);\n\n    modifier onlyState(uint256 expected) {\n        require(expected == state, \"Access denied. Wrong state.\");\n        _; //Continue execution\n    }\n\n    constructor(uint256 initial) public {\n        setState(initial);\n    }\n\n    function getState() public view returns (uint256) {\n        return state;\n    }\n\n    function setState(uint256 newState) internal {\n        state = newState;\n        emit StateChanged(state);\n    }\n}\n",
  "sourcePath": "/c/Users/mawiz/Workspace/CasinoContract/contracts/Stateable.sol",
  "compiler": {
    "name": "solc",
    "version": "0.5.12+commit.7709ece9.Emscripten.clang"
  },
  "schemaVersion": "3.0.20",
  "updatedAt": "2020-04-22T17:01:46.490Z",
  "devdoc": {
    "methods": {}
  },
  "userdoc": {
    "methods": {}
  }
}